{
  "abi": [
    {
      "inputs": [
        {
          "internalType": "string",
          "name": "_name",
          "type": "string"
        },
        {
          "internalType": "string",
          "name": "_symbol",
          "type": "string"
        }
      ],
      "stateMutability": "nonpayable",
      "type": "constructor"
    },
    {
      "anonymous": false,
      "inputs": [
        {
          "indexed": true,
          "internalType": "address",
          "name": "owner",
          "type": "address"
        },
        {
          "indexed": true,
          "internalType": "address",
          "name": "approved",
          "type": "address"
        },
        {
          "indexed": true,
          "internalType": "uint256",
          "name": "tokenId",
          "type": "uint256"
        }
      ],
      "name": "Approval",
      "type": "event"
    },
    {
      "anonymous": false,
      "inputs": [
        {
          "indexed": true,
          "internalType": "address",
          "name": "owner",
          "type": "address"
        },
        {
          "indexed": true,
          "internalType": "address",
          "name": "operator",
          "type": "address"
        },
        {
          "indexed": false,
          "internalType": "bool",
          "name": "approved",
          "type": "bool"
        }
      ],
      "name": "ApprovalForAll",
      "type": "event"
    },
    {
      "anonymous": false,
      "inputs": [
        {
          "indexed": true,
          "internalType": "address",
          "name": "from",
          "type": "address"
        },
        {
          "indexed": true,
          "internalType": "address",
          "name": "to",
          "type": "address"
        },
        {
          "indexed": true,
          "internalType": "uint256",
          "name": "tokenId",
          "type": "uint256"
        }
      ],
      "name": "Transfer",
      "type": "event"
    },
    {
      "inputs": [
        {
          "internalType": "address",
          "name": "to",
          "type": "address"
        },
        {
          "internalType": "uint256",
          "name": "tokenId",
          "type": "uint256"
        }
      ],
      "name": "approve",
      "outputs": [],
      "stateMutability": "nonpayable",
      "type": "function"
    },
    {
      "inputs": [
        {
          "internalType": "address",
          "name": "owner",
          "type": "address"
        }
      ],
      "name": "balanceOf",
      "outputs": [
        {
          "internalType": "uint256",
          "name": "",
          "type": "uint256"
        }
      ],
      "stateMutability": "view",
      "type": "function"
    },
    {
      "inputs": [
        {
          "internalType": "uint256",
          "name": "tokenId",
          "type": "uint256"
        }
      ],
      "name": "getApproved",
      "outputs": [
        {
          "internalType": "address",
          "name": "",
          "type": "address"
        }
      ],
      "stateMutability": "view",
      "type": "function"
    },
    {
      "inputs": [
        {
          "internalType": "address",
          "name": "owner",
          "type": "address"
        },
        {
          "internalType": "address",
          "name": "operator",
          "type": "address"
        }
      ],
      "name": "isApprovedForAll",
      "outputs": [
        {
          "internalType": "bool",
          "name": "",
          "type": "bool"
        }
      ],
      "stateMutability": "view",
      "type": "function"
    },
    {
      "inputs": [
        {
          "internalType": "address",
          "name": "_owner",
          "type": "address"
        },
        {
          "internalType": "uint256",
          "name": "_tokenId",
          "type": "uint256"
        }
      ],
      "name": "mint",
      "outputs": [],
      "stateMutability": "nonpayable",
      "type": "function"
    },
    {
      "inputs": [],
      "name": "name",
      "outputs": [
        {
          "internalType": "string",
          "name": "",
          "type": "string"
        }
      ],
      "stateMutability": "view",
      "type": "function"
    },
    {
      "inputs": [
        {
          "internalType": "uint256",
          "name": "tokenId",
          "type": "uint256"
        }
      ],
      "name": "ownerOf",
      "outputs": [
        {
          "internalType": "address",
          "name": "",
          "type": "address"
        }
      ],
      "stateMutability": "view",
      "type": "function"
    },
    {
      "inputs": [
        {
          "internalType": "address",
          "name": "from",
          "type": "address"
        },
        {
          "internalType": "address",
          "name": "to",
          "type": "address"
        },
        {
          "internalType": "uint256",
          "name": "tokenId",
          "type": "uint256"
        }
      ],
      "name": "safeTransferFrom",
      "outputs": [],
      "stateMutability": "nonpayable",
      "type": "function"
    },
    {
      "inputs": [
        {
          "internalType": "address",
          "name": "from",
          "type": "address"
        },
        {
          "internalType": "address",
          "name": "to",
          "type": "address"
        },
        {
          "internalType": "uint256",
          "name": "tokenId",
          "type": "uint256"
        },
        {
          "internalType": "bytes",
          "name": "data",
          "type": "bytes"
        }
      ],
      "name": "safeTransferFrom",
      "outputs": [],
      "stateMutability": "nonpayable",
      "type": "function"
    },
    {
      "inputs": [
        {
          "internalType": "address",
          "name": "operator",
          "type": "address"
        },
        {
          "internalType": "bool",
          "name": "approved",
          "type": "bool"
        }
      ],
      "name": "setApprovalForAll",
      "outputs": [],
      "stateMutability": "nonpayable",
      "type": "function"
    },
    {
      "inputs": [
        {
          "internalType": "bytes4",
          "name": "interfaceId",
          "type": "bytes4"
        }
      ],
      "name": "supportsInterface",
      "outputs": [
        {
          "internalType": "bool",
          "name": "",
          "type": "bool"
        }
      ],
      "stateMutability": "view",
      "type": "function"
    },
    {
      "inputs": [],
      "name": "symbol",
      "outputs": [
        {
          "internalType": "string",
          "name": "",
          "type": "string"
        }
      ],
      "stateMutability": "view",
      "type": "function"
    },
    {
      "inputs": [
        {
          "internalType": "uint256",
          "name": "tokenId",
          "type": "uint256"
        }
      ],
      "name": "tokenURI",
      "outputs": [
        {
          "internalType": "string",
          "name": "",
          "type": "string"
        }
      ],
      "stateMutability": "view",
      "type": "function"
    },
    {
      "inputs": [
        {
          "internalType": "address",
          "name": "from",
          "type": "address"
        },
        {
          "internalType": "address",
          "name": "to",
          "type": "address"
        },
        {
          "internalType": "uint256",
          "name": "tokenId",
          "type": "uint256"
        }
      ],
      "name": "transferFrom",
      "outputs": [],
      "stateMutability": "nonpayable",
      "type": "function"
    }
  ],
  "bytecode": {
    "object": "0x60806040523480156200001157600080fd5b50604051620015c0380380620015c083398101604081905262000034916200012b565b8181600062000044838262000224565b50600162000053828262000224565b5050505050620002f0565b634e487b7160e01b600052604160045260246000fd5b600082601f8301126200008657600080fd5b81516001600160401b0380821115620000a357620000a36200005e565b604051601f8301601f19908116603f01168101908282118183101715620000ce57620000ce6200005e565b81604052838152602092508683858801011115620000eb57600080fd5b600091505b838210156200010f5785820183015181830184015290820190620000f0565b83821115620001215760008385830101525b9695505050505050565b600080604083850312156200013f57600080fd5b82516001600160401b03808211156200015757600080fd5b620001658683870162000074565b935060208501519150808211156200017c57600080fd5b506200018b8582860162000074565b9150509250929050565b600181811c90821680620001aa57607f821691505b602082108103620001cb57634e487b7160e01b600052602260045260246000fd5b50919050565b601f8211156200021f57600081815260208120601f850160051c81016020861015620001fa5750805b601f850160051c820191505b818110156200021b5782815560010162000206565b5050505b505050565b81516001600160401b038111156200024057620002406200005e565b620002588162000251845462000195565b84620001d1565b602080601f831160018114620002905760008415620002775750858301515b600019600386901b1c1916600185901b1785556200021b565b600085815260208120601f198616915b82811015620002c157888601518255948401946001909101908401620002a0565b5085821015620002e05787850151600019600388901b60f8161c191681555b5050505050600190811b01905550565b6112c080620003006000396000f3fe608060405234801561001057600080fd5b50600436106100ea5760003560e01c80636352211e1161008c578063a22cb46511610066578063a22cb465146101e1578063b88d4fde146101f4578063c87b56dd14610207578063e985e9c51461021a57600080fd5b80636352211e146101a557806370a08231146101b857806395d89b41146101d957600080fd5b8063095ea7b3116100c8578063095ea7b31461015757806323b872dd1461016c57806340c10f191461017f57806342842e0e1461019257600080fd5b806301ffc9a7146100ef57806306fdde0314610117578063081812fc1461012c575b600080fd5b6101026100fd366004610dd6565b610256565b60405190151581526020015b60405180910390f35b61011f6102a8565b60405161010e9190610e4b565b61013f61013a366004610e5e565b61033a565b6040516001600160a01b03909116815260200161010e565b61016a610165366004610e93565b610361565b005b61016a61017a366004610ebd565b61047b565b61016a61018d366004610e93565b6104ac565b61016a6101a0366004610ebd565b6104ba565b61013f6101b3366004610e5e565b6104d5565b6101cb6101c6366004610ef9565b610535565b60405190815260200161010e565b61011f6105bb565b61016a6101ef366004610f14565b6105ca565b61016a610202366004610f66565b6105d5565b61011f610215366004610e5e565b61060d565b610102610228366004611042565b6001600160a01b03918216600090815260056020908152604080832093909416825291909152205460ff1690565b60006001600160e01b031982166380ac58cd60e01b148061028757506001600160e01b03198216635b5e139f60e01b145b806102a257506301ffc9a760e01b6001600160e01b03198316145b92915050565b6060600080546102b790611075565b80601f01602080910402602001604051908101604052809291908181526020018280546102e390611075565b80156103305780601f1061030557610100808354040283529160200191610330565b820191906000526020600020905b81548152906001019060200180831161031357829003601f168201915b5050505050905090565b600061034582610681565b506000908152600460205260409020546001600160a01b031690565b600061036c826104d5565b9050806001600160a01b0316836001600160a01b0316036103de5760405162461bcd60e51b815260206004820152602160248201527f4552433732313a20617070726f76616c20746f2063757272656e74206f776e656044820152603960f91b60648201526084015b60405180910390fd5b336001600160a01b03821614806103fa57506103fa8133610228565b61046c5760405162461bcd60e51b815260206004820152603e60248201527f4552433732313a20617070726f76652063616c6c6572206973206e6f7420746f60448201527f6b656e206f776e6572206e6f7220617070726f76656420666f7220616c6c000060648201526084016103d5565b61047683836106e3565b505050565b6104853382610751565b6104a15760405162461bcd60e51b81526004016103d5906110af565b6104768383836107d0565b6104b6828261097b565b5050565b610476838383604051806020016040528060008152506105d5565b6000818152600260205260408120546001600160a01b0316806102a25760405162461bcd60e51b8152602060048201526018602482015277115490cdcc8c4e881a5b9d985b1a59081d1bdad95b88125160421b60448201526064016103d5565b60006001600160a01b03821661059f5760405162461bcd60e51b815260206004820152602960248201527f4552433732313a2061646472657373207a65726f206973206e6f7420612076616044820152683634b21037bbb732b960b91b60648201526084016103d5565b506001600160a01b031660009081526003602052604090205490565b6060600180546102b790611075565b6104b6338383610abd565b6105df3383610751565b6105fb5760405162461bcd60e51b81526004016103d5906110af565b61060784848484610b8b565b50505050565b606061061882610681565b600061062f60408051602081019091526000815290565b9050600081511161064f576040518060200160405280600081525061067a565b8061065984610bbe565b60405160200161066a9291906110fd565b6040516020818303038152906040525b9392505050565b6000818152600260205260409020546001600160a01b03166106e05760405162461bcd60e51b8152602060048201526018602482015277115490cdcc8c4e881a5b9d985b1a59081d1bdad95b88125160421b60448201526064016103d5565b50565b600081815260046020526040902080546001600160a01b0319166001600160a01b0384169081179091558190610718826104d5565b6001600160a01b03167f8c5be1e5ebec7d5bd14f71427d1e84f3dd0314c0f7b2291e5b200ac8c7c3b92560405160405180910390a45050565b60008061075d836104d5565b9050806001600160a01b0316846001600160a01b031614806107a457506001600160a01b0380821660009081526005602090815260408083209388168352929052205460ff165b806107c85750836001600160a01b03166107bd8461033a565b6001600160a01b0316145b949350505050565b826001600160a01b03166107e3826104d5565b6001600160a01b0316146108475760405162461bcd60e51b815260206004820152602560248201527f4552433732313a207472616e736665722066726f6d20696e636f72726563742060448201526437bbb732b960d91b60648201526084016103d5565b6001600160a01b0382166108a95760405162461bcd60e51b8152602060048201526024808201527f4552433732313a207472616e7366657220746f20746865207a65726f206164646044820152637265737360e01b60648201526084016103d5565b600081815260046020908152604080832080546001600160a01b03191690556001600160a01b0386168352600390915281208054600192906108ec908490611142565b90915550506001600160a01b038216600090815260036020526040812080546001929061091a908490611159565b909155505060008181526002602052604080822080546001600160a01b0319166001600160a01b0386811691821790925591518493918716917fddf252ad1be2c89b69c2b068fc378daa952ba7f163c4a11628f55a4df523b3ef91a4505050565b6001600160a01b0382166109d15760405162461bcd60e51b815260206004820181905260248201527f4552433732313a206d696e7420746f20746865207a65726f206164647265737360448201526064016103d5565b6000818152600260205260409020546001600160a01b031615610a365760405162461bcd60e51b815260206004820152601c60248201527f4552433732313a20746f6b656e20616c7265616479206d696e7465640000000060448201526064016103d5565b6001600160a01b0382166000908152600360205260408120805460019290610a5f908490611159565b909155505060008181526002602052604080822080546001600160a01b0319166001600160a01b03861690811790915590518392907fddf252ad1be2c89b69c2b068fc378daa952ba7f163c4a11628f55a4df523b3ef908290a45050565b816001600160a01b0316836001600160a01b031603610b1e5760405162461bcd60e51b815260206004820152601960248201527f4552433732313a20617070726f766520746f2063616c6c65720000000000000060448201526064016103d5565b6001600160a01b03838116600081815260056020908152604080832094871680845294825291829020805460ff191686151590811790915591519182527f17307eab39ab6107e8899845ad3d59bd9653f200f220920489ca2b5937696c31910160405180910390a3505050565b610b968484846107d0565b610ba284848484610cbf565b6106075760405162461bcd60e51b81526004016103d590611171565b606081600003610be55750506040805180820190915260018152600360fc1b602082015290565b8160005b8115610c0f5780610bf9816111c3565b9150610c089050600a836111f2565b9150610be9565b60008167ffffffffffffffff811115610c2a57610c2a610f50565b6040519080825280601f01601f191660200182016040528015610c54576020820181803683370190505b5090505b84156107c857610c69600183611142565b9150610c76600a86611206565b610c81906030611159565b60f81b818381518110610c9657610c9661121a565b60200101906001600160f81b031916908160001a905350610cb8600a866111f2565b9450610c58565b60006001600160a01b0384163b15610db557604051630a85bd0160e11b81526001600160a01b0385169063150b7a0290610d03903390899088908890600401611230565b6020604051808303816000875af1925050508015610d3e575060408051601f3d908101601f19168201909252610d3b9181019061126d565b60015b610d9b573d808015610d6c576040519150601f19603f3d011682016040523d82523d6000602084013e610d71565b606091505b508051600003610d935760405162461bcd60e51b81526004016103d590611171565b805181602001fd5b6001600160e01b031916630a85bd0160e11b1490506107c8565b506001949350505050565b6001600160e01b0319811681146106e057600080fd5b600060208284031215610de857600080fd5b813561067a81610dc0565b60005b83811015610e0e578181015183820152602001610df6565b838111156106075750506000910152565b60008151808452610e37816020860160208601610df3565b601f01601f19169290920160200192915050565b60208152600061067a6020830184610e1f565b600060208284031215610e7057600080fd5b5035919050565b80356001600160a01b0381168114610e8e57600080fd5b919050565b60008060408385031215610ea657600080fd5b610eaf83610e77565b946020939093013593505050565b600080600060608486031215610ed257600080fd5b610edb84610e77565b9250610ee960208501610e77565b9150604084013590509250925092565b600060208284031215610f0b57600080fd5b61067a82610e77565b60008060408385031215610f2757600080fd5b610f3083610e77565b915060208301358015158114610f4557600080fd5b809150509250929050565b634e487b7160e01b600052604160045260246000fd5b60008060008060808587031215610f7c57600080fd5b610f8585610e77565b9350610f9360208601610e77565b925060408501359150606085013567ffffffffffffffff80821115610fb757600080fd5b818701915087601f830112610fcb57600080fd5b813581811115610fdd57610fdd610f50565b604051601f8201601f19908116603f0116810190838211818310171561100557611005610f50565b816040528281528a602084870101111561101e57600080fd5b82602086016020830137600060208483010152809550505050505092959194509250565b6000806040838503121561105557600080fd5b61105e83610e77565b915061106c60208401610e77565b90509250929050565b600181811c9082168061108957607f821691505b6020821081036110a957634e487b7160e01b600052602260045260246000fd5b50919050565b6020808252602e908201527f4552433732313a2063616c6c6572206973206e6f7420746f6b656e206f776e6560408201526d1c881b9bdc88185c1c1c9bdd995960921b606082015260800190565b6000835161110f818460208801610df3565b835190830190611123818360208801610df3565b01949350505050565b634e487b7160e01b600052601160045260246000fd5b6000828210156111545761115461112c565b500390565b6000821982111561116c5761116c61112c565b500190565b60208082526032908201527f4552433732313a207472616e7366657220746f206e6f6e20455243373231526560408201527131b2b4bb32b91034b6b83632b6b2b73a32b960711b606082015260800190565b6000600182016111d5576111d561112c565b5060010190565b634e487b7160e01b600052601260045260246000fd5b600082611201576112016111dc565b500490565b600082611215576112156111dc565b500690565b634e487b7160e01b600052603260045260246000fd5b6001600160a01b038581168252841660208201526040810183905260806060820181905260009061126390830184610e1f565b9695505050505050565b60006020828403121561127f57600080fd5b815161067a81610dc056fea2646970667358221220bd36afad169170601f2cb1a47ddfbed1cd8a5aab0922d787ea5da3c269f888e364736f6c634300080f0033",
    "linkReferences": {}
  },
  "methodIdentifiers": {
    "approve(address,uint256)": "095ea7b3",
    "balanceOf(address)": "70a08231",
    "getApproved(uint256)": "081812fc",
    "isApprovedForAll(address,address)": "e985e9c5",
    "mint(address,uint256)": "40c10f19",
    "name()": "06fdde03",
    "ownerOf(uint256)": "6352211e",
    "safeTransferFrom(address,address,uint256)": "42842e0e",
    "safeTransferFrom(address,address,uint256,bytes)": "b88d4fde",
    "setApprovalForAll(address,bool)": "a22cb465",
    "supportsInterface(bytes4)": "01ffc9a7",
    "symbol()": "95d89b41",
    "tokenURI(uint256)": "c87b56dd",
    "transferFrom(address,address,uint256)": "23b872dd"
  },
  "id": 2
}