{
  "abi": [
    {
      "inputs": [
        {
          "internalType": "address[]",
          "name": "_owners",
          "type": "address[]"
        },
        {
          "internalType": "address payable",
          "name": "_destinationAddress",
          "type": "address"
        }
      ],
      "stateMutability": "nonpayable",
      "type": "constructor"
    },
    {
      "inputs": [],
      "name": "AccessDenied",
      "type": "error"
    },
    {
      "inputs": [],
      "name": "InvalidMethod",
      "type": "error"
    },
    {
      "anonymous": false,
      "inputs": [
        {
          "indexed": true,
          "internalType": "address",
          "name": "_from",
          "type": "address"
        },
        {
          "indexed": false,
          "internalType": "uint256",
          "name": "_amount",
          "type": "uint256"
        }
      ],
      "name": "BalanceWithdrawed",
      "type": "event"
    },
    {
      "anonymous": false,
      "inputs": [
        {
          "indexed": true,
          "internalType": "address",
          "name": "_from",
          "type": "address"
        },
        {
          "indexed": false,
          "internalType": "uint256",
          "name": "_amount",
          "type": "uint256"
        }
      ],
      "name": "PaymentReceived",
      "type": "event"
    },
    {
      "anonymous": false,
      "inputs": [
        {
          "indexed": true,
          "internalType": "address",
          "name": "_from",
          "type": "address"
        },
        {
          "indexed": true,
          "internalType": "uint256",
          "name": "_method",
          "type": "uint256"
        }
      ],
      "name": "RemainderDealt",
      "type": "event"
    },
    {
      "inputs": [
        {
          "internalType": "address",
          "name": "",
          "type": "address"
        }
      ],
      "name": "balances",
      "outputs": [
        {
          "internalType": "uint256",
          "name": "",
          "type": "uint256"
        }
      ],
      "stateMutability": "view",
      "type": "function"
    },
    {
      "inputs": [
        {
          "internalType": "uint256",
          "name": "_method",
          "type": "uint256"
        }
      ],
      "name": "dealWithRemainderBalance",
      "outputs": [],
      "stateMutability": "nonpayable",
      "type": "function"
    },
    {
      "inputs": [],
      "name": "destinationAddress",
      "outputs": [
        {
          "internalType": "address payable",
          "name": "",
          "type": "address"
        }
      ],
      "stateMutability": "view",
      "type": "function"
    },
    {
      "inputs": [
        {
          "internalType": "uint256",
          "name": "",
          "type": "uint256"
        }
      ],
      "name": "owners",
      "outputs": [
        {
          "internalType": "address",
          "name": "",
          "type": "address"
        }
      ],
      "stateMutability": "view",
      "type": "function"
    },
    {
      "inputs": [],
      "name": "remainderBalance",
      "outputs": [
        {
          "internalType": "uint256",
          "name": "",
          "type": "uint256"
        }
      ],
      "stateMutability": "view",
      "type": "function"
    },
    {
      "inputs": [
        {
          "internalType": "address payable",
          "name": "_newAddress",
          "type": "address"
        }
      ],
      "name": "setDestinationAddress",
      "outputs": [],
      "stateMutability": "nonpayable",
      "type": "function"
    },
    {
      "inputs": [],
      "name": "withdrawBalance",
      "outputs": [],
      "stateMutability": "nonpayable",
      "type": "function"
    },
    {
      "stateMutability": "payable",
      "type": "receive"
    }
  ],
  "bytecode": {
    "object": "0x608060405234801561001057600080fd5b506040516108d63803806108d683398101604081905261002f916100fc565b60005b82518110156100a35782818151811061004d5761004d6101d2565b602002602001015160008281548110610068576100686101d2565b600091825260209091200180546001600160a01b0319166001600160a01b03929092169190911790558061009b816101e8565b915050610032565b50600380546001600160a01b0319166001600160a01b03929092169190911790555061020f565b634e487b7160e01b600052604160045260246000fd5b80516001600160a01b03811681146100f757600080fd5b919050565b6000806040838503121561010f57600080fd5b82516001600160401b038082111561012657600080fd5b818501915085601f83011261013a57600080fd5b815160208282111561014e5761014e6100ca565b8160051b604051601f19603f83011681018181108682111715610173576101736100ca565b60405292835281830193508481018201928984111561019157600080fd5b948201945b838610156101b6576101a7866100e0565b85529482019493820193610196565b96506101c590508782016100e0565b9450505050509250929050565b634e487b7160e01b600052603260045260246000fd5b60006001820161020857634e487b7160e01b600052601160045260246000fd5b5060010190565b6106b88061021e6000396000f3fe6080604052600436106100745760003560e01c80636ac583571161004e5780636ac58357146101f85780636e1564641461020e5780637fa4cacb1461022e578063ca3254691461024e57600080fd5b8063025e7c271461016957806327e235e3146101a65780635fd8c710146101e157600080fd5b3661016457600080546100879034610591565b600080549192509061009983346105bb565b6100a391906105d2565b905060005b6000548110156101155781600160008084815481106100c9576100c96105e6565b60009182526020808320909101546001600160a01b03168352820192909252604001812080549091906100fd9084906105fc565b9091555081905061010d81610614565b9150506100a8565b50816002600082825461012891906105fc565b909155505060405134815233907f6ef95f06320e7a25a04a175ca677b7052bdd97131872c2192525a629f51be7709060200160405180910390a2005b600080fd5b34801561017557600080fd5b5061018961018436600461062d565b61026e565b6040516001600160a01b0390911681526020015b60405180910390f35b3480156101b257600080fd5b506101d36101c136600461065e565b60016020526000908152604090205481565b60405190815260200161019d565b3480156101ed57600080fd5b506101f6610298565b005b34801561020457600080fd5b506101d360025481565b34801561021a57600080fd5b506101f661022936600461062d565b610324565b34801561023a57600080fd5b506101f661024936600461065e565b6104e2565b34801561025a57600080fd5b50600354610189906001600160a01b031681565b6000818154811061027e57600080fd5b6000918252602090912001546001600160a01b0316905081565b3360008181526001602052604080822054905190929183156108fc02918491818181858888f193505050501580156102d4573d6000803e3d6000fd5b503360008181526001602052604080822091909155517fdd14374458d4625d231f09a9f173ecc29d3953e238011f5ff6d06e94ac6b2bcd906103199084815260200190565b60405180910390a250565b6000805b60005481101561037b5760008181548110610345576103456105e6565b6000918252602090912001546001600160a01b03163303610369576001915061037b565b8061037381610614565b915050610328565b508061039a57604051634ca8886760e01b815260040160405180910390fd5b8160000361044e57600080546002546103b39190610591565b905060008080549050826002546103ca91906105bb565b6103d491906105d2565b905060005b6000548110156104465781600160008084815481106103fa576103fa6105e6565b60009182526020808320909101546001600160a01b031683528201929092526040018120805490919061042e9084906105fc565b9091555081905061043e81610614565b9150506103d9565b5050506104b1565b81600103610498576003546002546040516001600160a01b039092169181156108fc0291906000818181858888f19350505050158015610492573d6000803e3d6000fd5b506104b1565b60405163881e14df60e01b815260040160405180910390fd5b604051829033907f1173c017fd25f5d3386cb4e33638b24a40ef12d2c3d749f57582eb25965ea7b290600090a35050565b6000805b6000548110156105395760008181548110610503576105036105e6565b6000918252602090912001546001600160a01b031633036105275760019150610539565b8061053181610614565b9150506104e6565b508061055857604051634ca8886760e01b815260040160405180910390fd5b50600380546001600160a01b0319166001600160a01b0392909216919091179055565b634e487b7160e01b600052601260045260246000fd5b6000826105a0576105a061057b565b500690565b634e487b7160e01b600052601160045260246000fd5b6000828210156105cd576105cd6105a5565b500390565b6000826105e1576105e161057b565b500490565b634e487b7160e01b600052603260045260246000fd5b6000821982111561060f5761060f6105a5565b500190565b600060018201610626576106266105a5565b5060010190565b60006020828403121561063f57600080fd5b5035919050565b6001600160a01b038116811461065b57600080fd5b50565b60006020828403121561067057600080fd5b813561067b81610646565b939250505056fea2646970667358221220a67fa92514162147aeac6cd8fb5f24c8cc76ffa6acaa6e6195d970dd35bc25bb64736f6c634300080f0033",
    "linkReferences": {}
  },
  "methodIdentifiers": {
    "balances(address)": "27e235e3",
    "dealWithRemainderBalance(uint256)": "6e156464",
    "destinationAddress()": "ca325469",
    "owners(uint256)": "025e7c27",
    "remainderBalance()": "6ac58357",
    "setDestinationAddress(address)": "7fa4cacb",
    "withdrawBalance()": "5fd8c710"
  },
  "id": 0
}