{
  "abi": [
    {
      "inputs": [
        {
          "internalType": "address",
          "name": "_elasticAddress",
          "type": "address"
        },
        {
          "internalType": "address",
          "name": "_owner",
          "type": "address"
        },
        {
          "internalType": "address",
          "name": "_borrower",
          "type": "address"
        },
        {
          "internalType": "uint256",
          "name": "_collateral",
          "type": "uint256"
        },
        {
          "internalType": "uint256",
          "name": "_rentDays",
          "type": "uint256"
        },
        {
          "internalType": "uint256",
          "name": "_tokenId",
          "type": "uint256"
        },
        {
          "internalType": "address",
          "name": "_nftAddress",
          "type": "address"
        },
        {
          "internalType": "uint256",
          "name": "_price",
          "type": "uint256"
        }
      ],
      "stateMutability": "nonpayable",
      "type": "constructor"
    },
    {
      "anonymous": false,
      "inputs": [
        {
          "indexed": true,
          "internalType": "address",
          "name": "agreement",
          "type": "address"
        },
        {
          "indexed": true,
          "internalType": "address",
          "name": "approver",
          "type": "address"
        },
        {
          "indexed": false,
          "internalType": "uint256",
          "name": "collateral",
          "type": "uint256"
        },
        {
          "indexed": false,
          "internalType": "uint256",
          "name": "rentDays",
          "type": "uint256"
        },
        {
          "indexed": false,
          "internalType": "uint256",
          "name": "price",
          "type": "uint256"
        }
      ],
      "name": "AcceptedNewAgreement",
      "type": "event"
    },
    {
      "anonymous": false,
      "inputs": [
        {
          "indexed": true,
          "internalType": "address",
          "name": "agreement",
          "type": "address"
        },
        {
          "indexed": true,
          "internalType": "address",
          "name": "owner",
          "type": "address"
        },
        {
          "indexed": false,
          "internalType": "uint256",
          "name": "collateral",
          "type": "uint256"
        }
      ],
      "name": "CollateralWithdrawed",
      "type": "event"
    },
    {
      "anonymous": false,
      "inputs": [
        {
          "indexed": true,
          "internalType": "address",
          "name": "agreement",
          "type": "address"
        },
        {
          "indexed": false,
          "internalType": "address",
          "name": "owner",
          "type": "address"
        },
        {
          "indexed": false,
          "internalType": "address",
          "name": "borrower",
          "type": "address"
        },
        {
          "indexed": true,
          "internalType": "address",
          "name": "nftAddress",
          "type": "address"
        },
        {
          "indexed": true,
          "internalType": "uint256",
          "name": "tokenId",
          "type": "uint256"
        }
      ],
      "name": "NFTReturned",
      "type": "event"
    },
    {
      "anonymous": false,
      "inputs": [
        {
          "indexed": true,
          "internalType": "address",
          "name": "agreement",
          "type": "address"
        },
        {
          "indexed": false,
          "internalType": "uint256",
          "name": "collateral",
          "type": "uint256"
        },
        {
          "indexed": false,
          "internalType": "uint256",
          "name": "rentDays",
          "type": "uint256"
        },
        {
          "indexed": false,
          "internalType": "uint256",
          "name": "price",
          "type": "uint256"
        }
      ],
      "name": "NewAgreementProposal",
      "type": "event"
    },
    {
      "stateMutability": "payable",
      "type": "fallback"
    },
    {
      "inputs": [],
      "name": "acceptUpdatedAgreementData",
      "outputs": [],
      "stateMutability": "nonpayable",
      "type": "function"
    },
    {
      "inputs": [],
      "name": "elasticAddress",
      "outputs": [
        {
          "internalType": "address",
          "name": "",
          "type": "address"
        }
      ],
      "stateMutability": "view",
      "type": "function"
    },
    {
      "inputs": [],
      "name": "getElasticAddress",
      "outputs": [
        {
          "internalType": "address",
          "name": "",
          "type": "address"
        }
      ],
      "stateMutability": "view",
      "type": "function"
    },
    {
      "inputs": [],
      "name": "readAgreementData",
      "outputs": [
        {
          "components": [
            {
              "internalType": "address",
              "name": "owner",
              "type": "address"
            },
            {
              "internalType": "address",
              "name": "borrower",
              "type": "address"
            },
            {
              "internalType": "uint256",
              "name": "collateral",
              "type": "uint256"
            },
            {
              "internalType": "uint256",
              "name": "rentDays",
              "type": "uint256"
            },
            {
              "internalType": "uint256",
              "name": "tokenId",
              "type": "uint256"
            },
            {
              "internalType": "address",
              "name": "nftAddress",
              "type": "address"
            },
            {
              "internalType": "uint256",
              "name": "proposalId",
              "type": "uint256"
            },
            {
              "internalType": "uint256",
              "name": "price",
              "type": "uint256"
            },
            {
              "internalType": "uint256",
              "name": "startTime",
              "type": "uint256"
            }
          ],
          "internalType": "struct IAgreement.AgreementData",
          "name": "",
          "type": "tuple"
        }
      ],
      "stateMutability": "view",
      "type": "function"
    },
    {
      "inputs": [],
      "name": "readPayment",
      "outputs": [
        {
          "internalType": "uint256",
          "name": "",
          "type": "uint256"
        }
      ],
      "stateMutability": "view",
      "type": "function"
    },
    {
      "inputs": [],
      "name": "readUpdatedAgreement",
      "outputs": [
        {
          "components": [
            {
              "internalType": "uint256",
              "name": "collateral",
              "type": "uint256"
            },
            {
              "internalType": "uint256",
              "name": "rentDays",
              "type": "uint256"
            },
            {
              "internalType": "uint256",
              "name": "price",
              "type": "uint256"
            },
            {
              "internalType": "bool",
              "name": "ownerAccepted",
              "type": "bool"
            },
            {
              "internalType": "bool",
              "name": "borrowerAccepted",
              "type": "bool"
            }
          ],
          "internalType": "struct IAgreement.NewAgreementData",
          "name": "",
          "type": "tuple"
        }
      ],
      "stateMutability": "view",
      "type": "function"
    },
    {
      "inputs": [],
      "name": "returnNFT",
      "outputs": [],
      "stateMutability": "payable",
      "type": "function"
    },
    {
      "inputs": [
        {
          "internalType": "uint256",
          "name": "_collateral",
          "type": "uint256"
        },
        {
          "internalType": "uint256",
          "name": "_rentDays",
          "type": "uint256"
        },
        {
          "internalType": "uint256",
          "name": "_price",
          "type": "uint256"
        }
      ],
      "name": "updateAgreementData",
      "outputs": [],
      "stateMutability": "nonpayable",
      "type": "function"
    },
    {
      "inputs": [],
      "name": "withdrawCollateral",
      "outputs": [],
      "stateMutability": "nonpayable",
      "type": "function"
    }
  ],
  "bytecode": {
    "object": "0x608060405234801561001057600080fd5b50604051610d60380380610d6083398101604081905261002f916100b4565b600080546001600160a01b03199081166001600160a01b039a8b1617909155600180548216988a1698909817909755600280548816968916969096179095556003939093556004919091556005556006805490931693169290921790556008554260095561012f565b80516001600160a01b03811681146100af57600080fd5b919050565b600080600080600080600080610100898b0312156100d157600080fd5b6100da89610098565b97506100e860208a01610098565b96506100f660408a01610098565b9550606089015194506080890151935060a0890151925061011960c08a01610098565b915060e089015190509295985092959890939650565b610c228061013e6000396000f3fe6080604052600436106100835760003560e01c806370bf2bae1161005657806370bf2bae146101865780639361c1ff146101a457806398bb25eb146101b9578063b78154f514610214578063c6d62d901461023457005b80630eba16ad1461008557806331f2948d146100ad57806359c153be146100e557806364c697fc146100fa575b005b34801561009157600080fd5b5061009a61023c565b6040519081526020015b60405180910390f35b3480156100b957600080fd5b506000546100cd906001600160a01b031681565b6040516001600160a01b0390911681526020016100a4565b3480156100f157600080fd5b506100836102c0565b34801561010657600080fd5b5061010f6104a1565b6040516100a4919081516001600160a01b03908116825260208084015182169083015260408084015190830152606080840151908301526080808401519083015260a0808401519091169082015260c0808301519082015260e0808301519082015261010091820151918101919091526101200190565b34801561019257600080fd5b506000546001600160a01b03166100cd565b3480156101b057600080fd5b506100836105c6565b3480156101c557600080fd5b506101ce610712565b6040516100a49190600060a08201905082518252602083015160208301526040830151604083015260608301511515606083015260808301511515608083015292915050565b34801561022057600080fd5b5061008361022f366004610b35565b6107de565b6100836108ea565b6001546000906001600160a01b031633148061026257506002546001600160a01b031633145b8061027757506000546001600160a01b031633145b61029c5760405162461bcd60e51b815260040161029390610b61565b60405180910390fd5b600854600954600091906102b09042610b9e565b6102ba9190610bb5565b91505090565b6001546001600160a01b031633146102ea5760405162461bcd60e51b815260040161029390610b61565b60045442906102fa906018610bb5565b61030590603c610bb5565b61031090603c610bb5565b60095461031d9190610bd4565b101561037f5760405162461bcd60e51b815260206004820152602b60248201527f43616e6e6f742074616b6520636f6c6c61746572616c206265666f726520616760448201526a1c99595b595b9d08195b9960aa1b6064820152608401610293565b600354604051339180156108fc02916000818181858888f193505050501580156103ad573d6000803e3d6000fd5b50600080546040516001600160a01b03909116914780156108fc02929091818181858888f193505050501580156103e8573d6000803e3d6000fd5b50600054600554604051632587c25160e21b81526001600160a01b039092169163961f09449161041e9160040190815260200190565b600060405180830381600087803b15801561043857600080fd5b505af115801561044c573d6000803e3d6000fd5b50506001546003546040519081526001600160a01b0390911692503091507fef9786f020a42cd318223f933c92260dece31de5cd587b0d7c230fd2a056a1119060200160405180910390a361049f610b27565b565b61050b60405180610120016040528060006001600160a01b0316815260200160006001600160a01b0316815260200160008152602001600081526020016000815260200160006001600160a01b031681526020016000815260200160008152602001600081525090565b6001546001600160a01b031633148061052e57506002546001600160a01b031633145b8061054357506000546001600160a01b031633145b61055f5760405162461bcd60e51b815260040161029390610b61565b5060408051610120810182526001546001600160a01b03908116825260025481166020830152600354928201929092526004546060820152600554608082015260065490911660a082015260075460c082015260085460e082015260095461010082015290565b6001546001600160a01b03163314806105e957506002546001600160a01b031633145b806105fe57506000546001600160a01b031633145b61061a5760405162461bcd60e51b815260040161029390610b61565b6001546001600160a01b03163314610633576000610636565b60015b600d805460ff19169115159190911790556002546001600160a01b03163314610660576000610663565b60015b600d80549115156101000261ff00198316811790915560ff90811691161780156106945750600d54610100900460ff165b156106c557600a8054600355600b8054600455600c80546008556000928390559082905555600d805461ffff191690555b6003546004546008546040805193845260208401929092528282015251339130917fb68df63d8a9a08aff17eca0804f29b1d4a74b988d68032fb5403c27c0a00983a9181900360600190a3565b6107486040518060a001604052806000815260200160008152602001600081526020016000151581526020016000151581525090565b6001546001600160a01b031633148061076b57506002546001600160a01b031633145b8061078057506000546001600160a01b031633145b61079c5760405162461bcd60e51b815260040161029390610b61565b506040805160a081018252600a548152600b546020820152600c5491810191909152600d5460ff80821615156060840152610100909104161515608082015290565b6001546001600160a01b031633148061080157506002546001600160a01b031633145b8061081657506000546001600160a01b031633145b6108325760405162461bcd60e51b815260040161029390610b61565b600a839055600b829055600c8190556001546001600160a01b0316331461085a57600061085d565b60015b600d805460ff19169115159190911790556002546001600160a01b0316331461088757600061088a565b60015b600d80549115156101000261ff0019909216919091179055604080518481526020810184905290810182905230907fe4cce6927b8bf0d716b3d9dfeea287783f4548420991972e21af329645ce50fa9060600160405180910390a2505050565b6002546001600160a01b031633146109145760405162461bcd60e51b815260040161029390610b61565b600854600954600091906109289042610b9e565b6109329190610bb5565b9050804710156109775760405162461bcd60e51b815260206004820152601060248201526f4e6f7420656e6f7567682066756e647360801b6044820152606401610293565b6006546000546005546040516323b872dd60e01b81523360048201526001600160a01b03928316602482015260448101919091529116906323b872dd90606401600060405180830381600087803b1580156109d157600080fd5b505af11580156109e5573d6000803e3d6000fd5b50506001546040516001600160a01b03909116925083156108fc02915083906000818181858888f19350505050158015610a23573d6000803e3d6000fd5b506002546040516001600160a01b03909116904780156108fc02916000818181858888f19350505050158015610a5d573d6000803e3d6000fd5b50600054600554604051632da0281160e11b81526001600160a01b0390921691635b40502291610a939160040190815260200190565b600060405180830381600087803b158015610aad57600080fd5b505af1158015610ac1573d6000803e3d6000fd5b5050600554600654600154600254604080516001600160a01b03938416815291831660208301529395509116925030917f026d9064198ba188fd618356138706e98d18eb8d2200b7086529c62206d51d8f910160405180910390a4610b24610b27565b50565b6000546001600160a01b0316ff5b600080600060608486031215610b4a57600080fd5b505081359360208301359350604090920135919050565b6020808252600d908201526c1858d8d95cdcc819195b9a5959609a1b604082015260600190565b634e487b7160e01b600052601160045260246000fd5b600082821015610bb057610bb0610b88565b500390565b6000816000190483118215151615610bcf57610bcf610b88565b500290565b60008219821115610be757610be7610b88565b50019056fea2646970667358221220c6e470646449ec299a01e70e012f0c9e93fcd9d82449225987b88bed0155ae2a64736f6c634300080f0033",
    "linkReferences": {}
  },
  "methodIdentifiers": {
    "acceptUpdatedAgreementData()": "9361c1ff",
    "elasticAddress()": "31f2948d",
    "getElasticAddress()": "70bf2bae",
    "readAgreementData()": "64c697fc",
    "readPayment()": "0eba16ad",
    "readUpdatedAgreement()": "98bb25eb",
    "returnNFT()": "c6d62d90",
    "updateAgreementData(uint256,uint256,uint256)": "b78154f5",
    "withdrawCollateral()": "59c153be"
  },
  "id": 0
}