{
  "abi": [
    {
      "inputs": [
        {
          "internalType": "address",
          "name": "_elasticAddress",
          "type": "address"
        },
        {
          "internalType": "address",
          "name": "_owner",
          "type": "address"
        },
        {
          "internalType": "address",
          "name": "_borrower",
          "type": "address"
        },
        {
          "internalType": "uint256",
          "name": "_collateral",
          "type": "uint256"
        },
        {
          "internalType": "uint256",
          "name": "_rentDays",
          "type": "uint256"
        },
        {
          "internalType": "uint256",
          "name": "_tokenId",
          "type": "uint256"
        },
        {
          "internalType": "address",
          "name": "_nftAddress",
          "type": "address"
        },
        {
          "internalType": "uint256",
          "name": "_price",
          "type": "uint256"
        }
      ],
      "stateMutability": "nonpayable",
      "type": "constructor"
    },
    {
      "anonymous": false,
      "inputs": [
        {
          "indexed": true,
          "internalType": "address",
          "name": "agreement",
          "type": "address"
        },
        {
          "indexed": true,
          "internalType": "address",
          "name": "approver",
          "type": "address"
        },
        {
          "indexed": false,
          "internalType": "uint256",
          "name": "collateral",
          "type": "uint256"
        },
        {
          "indexed": false,
          "internalType": "uint256",
          "name": "rentDays",
          "type": "uint256"
        },
        {
          "indexed": false,
          "internalType": "uint256",
          "name": "price",
          "type": "uint256"
        }
      ],
      "name": "AcceptedNewAgreement",
      "type": "event"
    },
    {
      "anonymous": false,
      "inputs": [
        {
          "indexed": true,
          "internalType": "address",
          "name": "agreement",
          "type": "address"
        },
        {
          "indexed": true,
          "internalType": "address",
          "name": "owner",
          "type": "address"
        },
        {
          "indexed": false,
          "internalType": "uint256",
          "name": "collateral",
          "type": "uint256"
        }
      ],
      "name": "CollateralWithdrawed",
      "type": "event"
    },
    {
      "anonymous": false,
      "inputs": [
        {
          "indexed": true,
          "internalType": "address",
          "name": "agreement",
          "type": "address"
        },
        {
          "indexed": false,
          "internalType": "address",
          "name": "owner",
          "type": "address"
        },
        {
          "indexed": false,
          "internalType": "address",
          "name": "borrower",
          "type": "address"
        },
        {
          "indexed": true,
          "internalType": "address",
          "name": "nftAddress",
          "type": "address"
        },
        {
          "indexed": true,
          "internalType": "uint256",
          "name": "tokenId",
          "type": "uint256"
        }
      ],
      "name": "NFTReturned",
      "type": "event"
    },
    {
      "anonymous": false,
      "inputs": [
        {
          "indexed": true,
          "internalType": "address",
          "name": "agreement",
          "type": "address"
        },
        {
          "indexed": false,
          "internalType": "uint256",
          "name": "collateral",
          "type": "uint256"
        },
        {
          "indexed": false,
          "internalType": "uint256",
          "name": "rentDays",
          "type": "uint256"
        },
        {
          "indexed": false,
          "internalType": "uint256",
          "name": "price",
          "type": "uint256"
        }
      ],
      "name": "NewAgreementProposal",
      "type": "event"
    },
    {
      "stateMutability": "payable",
      "type": "fallback"
    },
    {
      "inputs": [],
      "name": "acceptUpdatedAgreementData",
      "outputs": [],
      "stateMutability": "nonpayable",
      "type": "function"
    },
    {
      "inputs": [],
      "name": "elasticAddress",
      "outputs": [
        {
          "internalType": "address",
          "name": "",
          "type": "address"
        }
      ],
      "stateMutability": "view",
      "type": "function"
    },
    {
      "inputs": [],
      "name": "readAgreementData",
      "outputs": [
        {
          "components": [
            {
              "internalType": "address",
              "name": "owner",
              "type": "address"
            },
            {
              "internalType": "address",
              "name": "borrower",
              "type": "address"
            },
            {
              "internalType": "uint256",
              "name": "collateral",
              "type": "uint256"
            },
            {
              "internalType": "uint256",
              "name": "rentDays",
              "type": "uint256"
            },
            {
              "internalType": "uint256",
              "name": "tokenId",
              "type": "uint256"
            },
            {
              "internalType": "address",
              "name": "nftAddress",
              "type": "address"
            },
            {
              "internalType": "uint256",
              "name": "proposalId",
              "type": "uint256"
            },
            {
              "internalType": "uint256",
              "name": "price",
              "type": "uint256"
            },
            {
              "internalType": "uint256",
              "name": "startTime",
              "type": "uint256"
            }
          ],
          "internalType": "struct IAgreement.AgreementData",
          "name": "",
          "type": "tuple"
        }
      ],
      "stateMutability": "view",
      "type": "function"
    },
    {
      "inputs": [],
      "name": "readPayment",
      "outputs": [
        {
          "internalType": "uint256",
          "name": "",
          "type": "uint256"
        }
      ],
      "stateMutability": "view",
      "type": "function"
    },
    {
      "inputs": [],
      "name": "readUpdatedAgreement",
      "outputs": [
        {
          "components": [
            {
              "internalType": "uint256",
              "name": "collateral",
              "type": "uint256"
            },
            {
              "internalType": "uint256",
              "name": "rentDays",
              "type": "uint256"
            },
            {
              "internalType": "uint256",
              "name": "price",
              "type": "uint256"
            },
            {
              "internalType": "bool",
              "name": "ownerAccepted",
              "type": "bool"
            },
            {
              "internalType": "bool",
              "name": "borrowerAccepted",
              "type": "bool"
            }
          ],
          "internalType": "struct IAgreement.NewAgreementData",
          "name": "",
          "type": "tuple"
        }
      ],
      "stateMutability": "view",
      "type": "function"
    },
    {
      "inputs": [],
      "name": "returnNFT",
      "outputs": [],
      "stateMutability": "payable",
      "type": "function"
    },
    {
      "inputs": [
        {
          "internalType": "uint256",
          "name": "_collateral",
          "type": "uint256"
        },
        {
          "internalType": "uint256",
          "name": "_rentDays",
          "type": "uint256"
        },
        {
          "internalType": "uint256",
          "name": "_price",
          "type": "uint256"
        }
      ],
      "name": "updateAgreementData",
      "outputs": [],
      "stateMutability": "nonpayable",
      "type": "function"
    },
    {
      "inputs": [],
      "name": "withdrawCollateral",
      "outputs": [],
      "stateMutability": "nonpayable",
      "type": "function"
    }
  ],
  "bytecode": {
    "object": "0x608060405234801561001057600080fd5b50604051610d37380380610d3783398101604081905261002f916100b4565b600080546001600160a01b03199081166001600160a01b039a8b1617909155600180548216988a1698909817909755600280548816968916969096179095556003939093556004919091556005556006805490931693169290921790556008554260095561012f565b80516001600160a01b03811681146100af57600080fd5b919050565b600080600080600080600080610100898b0312156100d157600080fd5b6100da89610098565b97506100e860208a01610098565b96506100f660408a01610098565b9550606089015194506080890151935060a0890151925061011960c08a01610098565b915060e089015190509295985092959890939650565b610bf98061013e6000396000f3fe6080604052600436106100785760003560e01c80639361c1ff1161004b5780639361c1ff1461017b57806398bb25eb14610190578063b78154f5146101eb578063c6d62d901461020b57005b80630eba16ad1461007a57806331f2948d146100a257806359c153be146100da57806364c697fc146100ef575b005b34801561008657600080fd5b5061008f610213565b6040519081526020015b60405180910390f35b3480156100ae57600080fd5b506000546100c2906001600160a01b031681565b6040516001600160a01b039091168152602001610099565b3480156100e657600080fd5b50610078610297565b3480156100fb57600080fd5b50610104610478565b604051610099919081516001600160a01b03908116825260208084015182169083015260408084015190830152606080840151908301526080808401519083015260a0808401519091169082015260c0808301519082015260e0808301519082015261010091820151918101919091526101200190565b34801561018757600080fd5b5061007861059d565b34801561019c57600080fd5b506101a56106e9565b6040516100999190600060a08201905082518252602083015160208301526040830151604083015260608301511515606083015260808301511515608083015292915050565b3480156101f757600080fd5b50610078610206366004610b0c565b6107b5565b6100786108c1565b6001546000906001600160a01b031633148061023957506002546001600160a01b031633145b8061024e57506000546001600160a01b031633145b6102735760405162461bcd60e51b815260040161026a90610b38565b60405180910390fd5b600854600954600091906102879042610b75565b6102919190610b8c565b91505090565b6001546001600160a01b031633146102c15760405162461bcd60e51b815260040161026a90610b38565b60045442906102d1906018610b8c565b6102dc90603c610b8c565b6102e790603c610b8c565b6009546102f49190610bab565b10156103565760405162461bcd60e51b815260206004820152602b60248201527f43616e6e6f742074616b6520636f6c6c61746572616c206265666f726520616760448201526a1c99595b595b9d08195b9960aa1b606482015260840161026a565b600354604051339180156108fc02916000818181858888f19350505050158015610384573d6000803e3d6000fd5b50600080546040516001600160a01b03909116914780156108fc02929091818181858888f193505050501580156103bf573d6000803e3d6000fd5b50600054600554604051632587c25160e21b81526001600160a01b039092169163961f0944916103f59160040190815260200190565b600060405180830381600087803b15801561040f57600080fd5b505af1158015610423573d6000803e3d6000fd5b50506001546003546040519081526001600160a01b0390911692503091507fef9786f020a42cd318223f933c92260dece31de5cd587b0d7c230fd2a056a1119060200160405180910390a3610476610afe565b565b6104e260405180610120016040528060006001600160a01b0316815260200160006001600160a01b0316815260200160008152602001600081526020016000815260200160006001600160a01b031681526020016000815260200160008152602001600081525090565b6001546001600160a01b031633148061050557506002546001600160a01b031633145b8061051a57506000546001600160a01b031633145b6105365760405162461bcd60e51b815260040161026a90610b38565b5060408051610120810182526001546001600160a01b03908116825260025481166020830152600354928201929092526004546060820152600554608082015260065490911660a082015260075460c082015260085460e082015260095461010082015290565b6001546001600160a01b03163314806105c057506002546001600160a01b031633145b806105d557506000546001600160a01b031633145b6105f15760405162461bcd60e51b815260040161026a90610b38565b6001546001600160a01b0316331461060a57600061060d565b60015b600d805460ff19169115159190911790556002546001600160a01b0316331461063757600061063a565b60015b600d80549115156101000261ff00198316811790915560ff908116911617801561066b5750600d54610100900460ff165b1561069c57600a8054600355600b8054600455600c80546008556000928390559082905555600d805461ffff191690555b6003546004546008546040805193845260208401929092528282015251339130917fb68df63d8a9a08aff17eca0804f29b1d4a74b988d68032fb5403c27c0a00983a9181900360600190a3565b61071f6040518060a001604052806000815260200160008152602001600081526020016000151581526020016000151581525090565b6001546001600160a01b031633148061074257506002546001600160a01b031633145b8061075757506000546001600160a01b031633145b6107735760405162461bcd60e51b815260040161026a90610b38565b506040805160a081018252600a548152600b546020820152600c5491810191909152600d5460ff80821615156060840152610100909104161515608082015290565b6001546001600160a01b03163314806107d857506002546001600160a01b031633145b806107ed57506000546001600160a01b031633145b6108095760405162461bcd60e51b815260040161026a90610b38565b600a839055600b829055600c8190556001546001600160a01b03163314610831576000610834565b60015b600d805460ff19169115159190911790556002546001600160a01b0316331461085e576000610861565b60015b600d80549115156101000261ff0019909216919091179055604080518481526020810184905290810182905230907fe4cce6927b8bf0d716b3d9dfeea287783f4548420991972e21af329645ce50fa9060600160405180910390a2505050565b6002546001600160a01b031633146108eb5760405162461bcd60e51b815260040161026a90610b38565b600854600954600091906108ff9042610b75565b6109099190610b8c565b90508047101561094e5760405162461bcd60e51b815260206004820152601060248201526f4e6f7420656e6f7567682066756e647360801b604482015260640161026a565b6006546000546005546040516323b872dd60e01b81523360048201526001600160a01b03928316602482015260448101919091529116906323b872dd90606401600060405180830381600087803b1580156109a857600080fd5b505af11580156109bc573d6000803e3d6000fd5b50506001546040516001600160a01b03909116925083156108fc02915083906000818181858888f193505050501580156109fa573d6000803e3d6000fd5b506002546040516001600160a01b03909116904780156108fc02916000818181858888f19350505050158015610a34573d6000803e3d6000fd5b50600054600554604051632da0281160e11b81526001600160a01b0390921691635b40502291610a6a9160040190815260200190565b600060405180830381600087803b158015610a8457600080fd5b505af1158015610a98573d6000803e3d6000fd5b5050600554600654600154600254604080516001600160a01b03938416815291831660208301529395509116925030917f026d9064198ba188fd618356138706e98d18eb8d2200b7086529c62206d51d8f910160405180910390a4610afb610afe565b50565b6000546001600160a01b0316ff5b600080600060608486031215610b2157600080fd5b505081359360208301359350604090920135919050565b6020808252600d908201526c1858d8d95cdcc819195b9a5959609a1b604082015260600190565b634e487b7160e01b600052601160045260246000fd5b600082821015610b8757610b87610b5f565b500390565b6000816000190483118215151615610ba657610ba6610b5f565b500290565b60008219821115610bbe57610bbe610b5f565b50019056fea2646970667358221220ea3c1f3a2d167396b2d0844d72f141df1a1d62b213fb5bae86f907225c27e3ac64736f6c634300080f0033",
    "linkReferences": {}
  },
  "methodIdentifiers": {
    "acceptUpdatedAgreementData()": "9361c1ff",
    "elasticAddress()": "31f2948d",
    "readAgreementData()": "64c697fc",
    "readPayment()": "0eba16ad",
    "readUpdatedAgreement()": "98bb25eb",
    "returnNFT()": "c6d62d90",
    "updateAgreementData(uint256,uint256,uint256)": "b78154f5",
    "withdrawCollateral()": "59c153be"
  },
  "id": 0
}