{
  "abi": [
    {
      "inputs": [],
      "name": "AccessDenied",
      "type": "error"
    },
    {
      "inputs": [],
      "name": "AlreadyRented",
      "type": "error"
    },
    {
      "inputs": [],
      "name": "InvalidId",
      "type": "error"
    },
    {
      "inputs": [],
      "name": "LowAmount",
      "type": "error"
    },
    {
      "inputs": [],
      "name": "NotAcceptedProposal",
      "type": "error"
    },
    {
      "inputs": [],
      "name": "NotOwner",
      "type": "error"
    },
    {
      "anonymous": false,
      "inputs": [
        {
          "indexed": true,
          "internalType": "uint256",
          "name": "itemId",
          "type": "uint256"
        },
        {
          "indexed": false,
          "internalType": "uint256",
          "name": "collateral",
          "type": "uint256"
        },
        {
          "indexed": false,
          "internalType": "uint256",
          "name": "price",
          "type": "uint256"
        }
      ],
      "name": "ListedNFTDataModified",
      "type": "event"
    },
    {
      "anonymous": false,
      "inputs": [
        {
          "indexed": true,
          "internalType": "address",
          "name": "owner",
          "type": "address"
        },
        {
          "indexed": true,
          "internalType": "uint256",
          "name": "itemId",
          "type": "uint256"
        },
        {
          "indexed": false,
          "internalType": "string",
          "name": "tokenURI",
          "type": "string"
        },
        {
          "indexed": true,
          "internalType": "string",
          "name": "benefits",
          "type": "string"
        },
        {
          "indexed": false,
          "internalType": "uint256",
          "name": "collateral",
          "type": "uint256"
        },
        {
          "indexed": false,
          "internalType": "uint256",
          "name": "price",
          "type": "uint256"
        }
      ],
      "name": "NFTListed",
      "type": "event"
    },
    {
      "anonymous": false,
      "inputs": [
        {
          "indexed": true,
          "internalType": "address",
          "name": "owner",
          "type": "address"
        },
        {
          "indexed": true,
          "internalType": "address",
          "name": "tenant",
          "type": "address"
        },
        {
          "indexed": true,
          "internalType": "address",
          "name": "agreement",
          "type": "address"
        },
        {
          "indexed": false,
          "internalType": "address",
          "name": "itemAddress",
          "type": "address"
        },
        {
          "indexed": false,
          "internalType": "uint256",
          "name": "itemId",
          "type": "uint256"
        }
      ],
      "name": "NFTRented",
      "type": "event"
    },
    {
      "anonymous": false,
      "inputs": [
        {
          "indexed": true,
          "internalType": "uint256",
          "name": "itemId",
          "type": "uint256"
        },
        {
          "indexed": false,
          "internalType": "uint256",
          "name": "timestamp",
          "type": "uint256"
        }
      ],
      "name": "NFTReturned",
      "type": "event"
    },
    {
      "anonymous": false,
      "inputs": [
        {
          "indexed": true,
          "internalType": "address",
          "name": "owner",
          "type": "address"
        },
        {
          "indexed": true,
          "internalType": "uint256",
          "name": "itemId",
          "type": "uint256"
        }
      ],
      "name": "NFTUnlisted",
      "type": "event"
    },
    {
      "anonymous": false,
      "inputs": [
        {
          "indexed": true,
          "internalType": "address",
          "name": "previousOwner",
          "type": "address"
        },
        {
          "indexed": true,
          "internalType": "address",
          "name": "newOwner",
          "type": "address"
        }
      ],
      "name": "OwnershipTransferred",
      "type": "event"
    },
    {
      "inputs": [
        {
          "internalType": "uint256",
          "name": "",
          "type": "uint256"
        }
      ],
      "name": "activeItem",
      "outputs": [
        {
          "internalType": "bool",
          "name": "",
          "type": "bool"
        }
      ],
      "stateMutability": "view",
      "type": "function"
    },
    {
      "inputs": [
        {
          "internalType": "address",
          "name": "",
          "type": "address"
        },
        {
          "internalType": "uint256",
          "name": "",
          "type": "uint256"
        }
      ],
      "name": "borrowersNfts",
      "outputs": [
        {
          "internalType": "uint256",
          "name": "",
          "type": "uint256"
        }
      ],
      "stateMutability": "view",
      "type": "function"
    },
    {
      "inputs": [
        {
          "internalType": "uint256",
          "name": "_item",
          "type": "uint256"
        }
      ],
      "name": "getDataItem",
      "outputs": [
        {
          "components": [
            {
              "internalType": "address",
              "name": "owner",
              "type": "address"
            },
            {
              "internalType": "uint256",
              "name": "tokenId",
              "type": "uint256"
            },
            {
              "internalType": "address",
              "name": "nftAddress",
              "type": "address"
            },
            {
              "internalType": "uint256",
              "name": "collateral",
              "type": "uint256"
            },
            {
              "internalType": "uint256",
              "name": "pricePerDay",
              "type": "uint256"
            },
            {
              "internalType": "bool",
              "name": "rented",
              "type": "bool"
            },
            {
              "internalType": "string",
              "name": "benefits",
              "type": "string"
            },
            {
              "internalType": "address",
              "name": "agreementAddress",
              "type": "address"
            }
          ],
          "internalType": "struct Elastic.NFTData",
          "name": "",
          "type": "tuple"
        }
      ],
      "stateMutability": "view",
      "type": "function"
    },
    {
      "inputs": [
        {
          "internalType": "address",
          "name": "_owner",
          "type": "address"
        }
      ],
      "name": "getItemListByOwner",
      "outputs": [
        {
          "internalType": "uint256[]",
          "name": "",
          "type": "uint256[]"
        }
      ],
      "stateMutability": "view",
      "type": "function"
    },
    {
      "inputs": [
        {
          "internalType": "uint256",
          "name": "",
          "type": "uint256"
        }
      ],
      "name": "items",
      "outputs": [
        {
          "internalType": "address",
          "name": "owner",
          "type": "address"
        },
        {
          "internalType": "uint256",
          "name": "tokenId",
          "type": "uint256"
        },
        {
          "internalType": "address",
          "name": "nftAddress",
          "type": "address"
        },
        {
          "internalType": "uint256",
          "name": "collateral",
          "type": "uint256"
        },
        {
          "internalType": "uint256",
          "name": "pricePerDay",
          "type": "uint256"
        },
        {
          "internalType": "bool",
          "name": "rented",
          "type": "bool"
        },
        {
          "internalType": "string",
          "name": "benefits",
          "type": "string"
        },
        {
          "internalType": "address",
          "name": "agreementAddress",
          "type": "address"
        }
      ],
      "stateMutability": "view",
      "type": "function"
    },
    {
      "inputs": [
        {
          "internalType": "address",
          "name": "_nft",
          "type": "address"
        },
        {
          "internalType": "uint256",
          "name": "_tokenId",
          "type": "uint256"
        },
        {
          "internalType": "uint256",
          "name": "_price",
          "type": "uint256"
        },
        {
          "internalType": "uint256",
          "name": "_collateral",
          "type": "uint256"
        },
        {
          "internalType": "string",
          "name": "_benefits",
          "type": "string"
        }
      ],
      "name": "listNFT",
      "outputs": [
        {
          "internalType": "uint256",
          "name": "",
          "type": "uint256"
        }
      ],
      "stateMutability": "nonpayable",
      "type": "function"
    },
    {
      "inputs": [
        {
          "internalType": "uint256",
          "name": "_itemId",
          "type": "uint256"
        },
        {
          "internalType": "uint256",
          "name": "_collateral",
          "type": "uint256"
        },
        {
          "internalType": "uint256",
          "name": "_price",
          "type": "uint256"
        }
      ],
      "name": "modifyListedNFT",
      "outputs": [],
      "stateMutability": "nonpayable",
      "type": "function"
    },
    {
      "inputs": [],
      "name": "nextItemId",
      "outputs": [
        {
          "internalType": "uint256",
          "name": "",
          "type": "uint256"
        }
      ],
      "stateMutability": "view",
      "type": "function"
    },
    {
      "inputs": [
        {
          "internalType": "address",
          "name": "",
          "type": "address"
        },
        {
          "internalType": "uint256",
          "name": "",
          "type": "uint256"
        }
      ],
      "name": "nftListed",
      "outputs": [
        {
          "internalType": "bool",
          "name": "",
          "type": "bool"
        }
      ],
      "stateMutability": "view",
      "type": "function"
    },
    {
      "inputs": [
        {
          "internalType": "address",
          "name": "",
          "type": "address"
        },
        {
          "internalType": "uint256",
          "name": "",
          "type": "uint256"
        }
      ],
      "name": "nftsListedByOwner",
      "outputs": [
        {
          "internalType": "uint256",
          "name": "",
          "type": "uint256"
        }
      ],
      "stateMutability": "view",
      "type": "function"
    },
    {
      "inputs": [],
      "name": "owner",
      "outputs": [
        {
          "internalType": "address",
          "name": "",
          "type": "address"
        }
      ],
      "stateMutability": "view",
      "type": "function"
    },
    {
      "inputs": [],
      "name": "renounceOwnership",
      "outputs": [],
      "stateMutability": "nonpayable",
      "type": "function"
    },
    {
      "inputs": [
        {
          "internalType": "uint256",
          "name": "_itemId",
          "type": "uint256"
        },
        {
          "internalType": "uint256",
          "name": "_daysToRent",
          "type": "uint256"
        }
      ],
      "name": "rent",
      "outputs": [
        {
          "internalType": "address",
          "name": "",
          "type": "address"
        }
      ],
      "stateMutability": "payable",
      "type": "function"
    },
    {
      "inputs": [
        {
          "internalType": "uint256",
          "name": "_itemId",
          "type": "uint256"
        },
        {
          "internalType": "address",
          "name": "_borrower",
          "type": "address"
        }
      ],
      "name": "returnNFT",
      "outputs": [],
      "stateMutability": "nonpayable",
      "type": "function"
    },
    {
      "inputs": [
        {
          "internalType": "address",
          "name": "newOwner",
          "type": "address"
        }
      ],
      "name": "transferOwnership",
      "outputs": [],
      "stateMutability": "nonpayable",
      "type": "function"
    },
    {
      "inputs": [
        {
          "internalType": "uint256",
          "name": "_itemId",
          "type": "uint256"
        }
      ],
      "name": "unlistNFT",
      "outputs": [],
      "stateMutability": "nonpayable",
      "type": "function"
    }
  ],
  "bytecode": {
    "object": "0x60806040526001805534801561001457600080fd5b5061001e33610023565b610073565b600080546001600160a01b038381166001600160a01b0319831681178455604051919092169283917f8be0079c531659141344cd1fd0a4f28419497f9722a3daafe3b4186f6b6457e09190a35050565b612b03806100826000396000f3fe608060405260043610620001075760003560e01c80638da5cb5b1162000095578063bfb231d21162000060578063bfb231d21462000312578063c2dd9a00146200034d578063c66363441462000381578063f2fde38b14620003a657600080fd5b80638da5cb5b146200025a578063961f0944146200027a578063a62af6a2146200029f578063b0787e3214620002d357600080fd5b80636a86897411620000d65780636a86897414620001d55780636d07625514620001ed578063715018a61462000212578063783a112b146200022a57600080fd5b8063107037e8146200010c5780632fd3db341462000144578063445297e3146200016b57806358dd86031462000190575b600080fd5b3480156200011957600080fd5b50620001316200012b36600462001702565b620003cb565b6040519081526020015b60405180910390f35b3480156200015157600080fd5b50620001696200016336600462001731565b620003fd565b005b3480156200017857600080fd5b50620001316200018a36600462001702565b62000638565b3480156200019d57600080fd5b50620001c4620001af36600462001764565b60046020526000908152604090205460ff1681565b60405190151581526020016200013b565b348015620001e257600080fd5b506200013160015481565b348015620001fa57600080fd5b50620001316200020c3660046200177e565b62000655565b3480156200021f57600080fd5b506200016962000a02565b620002416200023b36600462001826565b62000a1a565b6040516001600160a01b0390911681526020016200013b565b3480156200026757600080fd5b506000546001600160a01b031662000241565b3480156200028757600080fd5b50620001696200029936600462001764565b62000de4565b348015620002ac57600080fd5b50620002c4620002be36600462001764565b6200116d565b6040516200013b9190620018aa565b348015620002e057600080fd5b50620001c4620002f236600462001702565b600560209081526000928352604080842090915290825290205460ff1681565b3480156200031f57600080fd5b50620003376200033136600462001764565b620012d1565b6040516200013b98979695949392919062001944565b3480156200035a57600080fd5b50620003726200036c366004620019a4565b620013c2565b6040516200013b9190620019cb565b3480156200038e57600080fd5b5062000169620003a036600462001a11565b62001430565b348015620003b357600080fd5b5062000169620003c5366004620019a4565b6200155f565b60026020528160005260406000208181548110620003e857600080fd5b90600052602060002001600091509150505481565b6000828152600660205260409020600701546001600160a01b031633146200043857604051634ca8886760e01b815260040160405180910390fd5b600082815260066020526040812060058101805460ff1916905560070180546001600160a01b0319169055805b6001600160a01b038316600090815260036020526040902054811015620005b7576001600160a01b0383166000908152600360205260409020805485919083908110620004b657620004b662001a3e565b90600052602060002001540362000503576001600160a01b0383166000908152600360205260409020805482908110620004f457620004f462001a3e565b60009182526020822001559050805b81811115620005a2576001600160a01b038316600090815260036020526040902080548290811062000539576200053962001a3e565b60009182526020808320909101546001600160a01b03861683526003909152604090912062000569848462001a6a565b6200057690600162001a6a565b62000582908562001a84565b8154811062000595576200059562001a3e565b6000918252602090912001555b80620005ae8162001a9f565b91505062000465565b506001600160a01b0382166000908152600360205260409020805480620005e257620005e262001abb565b60019003818190600052602060002001600090559055827f2f7962629c7acb5fdb09b112c9ebf00af8ffd9f852864c333918873be6a56800426040516200062b91815260200190565b60405180910390a2505050565b60036020528160005260406000208181548110620003e857600080fd5b6040516331a9108f60e11b81526004810186905260009033906001600160a01b03891690636352211e90602401602060405180830381865afa158015620006a0573d6000803e3d6000fd5b505050506040513d601f19601f82011682018060405250810190620006c6919062001ad1565b6001600160a01b031614620006ee576040516330cd747160e01b815260040160405180910390fd5b6040516323b872dd60e01b8152336004820152306024820152604481018790526001600160a01b038816906323b872dd90606401600060405180830381600087803b1580156200073d57600080fd5b505af115801562000752573d6000803e3d6000fd5b505050506000604051806101000160405280336001600160a01b03168152602001888152602001896001600160a01b0316815260200186815260200187815260200160001515815260200185858080601f016020809104026020016040519081016040528093929190818152602001838380828437600092018290525093855250505060209182018190523381526002808352604080832060018054825480830184559286528686209092019190915580548452600680865293829020865181546001600160a01b03199081166001600160a01b039283161783559688015192820192909255918601519282018054909516921691909117909255606083015160038301556080830151600483015560a083015160058301805460ff191691151591909117905560c083015192935083929082019062000893908262001b96565b5060e09190910151600790910180546001600160a01b0319166001600160a01b03928316179055600180546000908152600460209081526040808320805460ff199081168617909155948d168352600582528083208c845290915290819020805490931682179092558054810190555162000912908590859062001c63565b604051908190039020600180549060006200092d8362001c73565b9091555060405163c87b56dd60e01b8152600481018a905233907fb7a4c17b60b8462caa7fc96fe34f7a00d71848f81ea3921132245c2bc236fea7906001600160a01b038d169063c87b56dd90602401600060405180830381865afa1580156200099b573d6000803e3d6000fd5b505050506040513d6000823e601f3d908101601f19168201604052620009c5919081019062001c8d565b898b604051620009d89392919062001d46565b60405180910390a460018054906000620009f28362001c73565b9091555098975050505050505050565b62000a0c620015de565b62000a1860006200163a565b565b60008281526004602052604081205460ff16151560011462000a705760405162461bcd60e51b815260206004820152600a6024820152696e6f742061637469766560b01b60448201526064015b60405180910390fd5b600083815260066020818152604080842081516101008101835281546001600160a01b0390811682526001830154948201949094526002820154909316918301919091526003810154606083015260048101546080830152600581015460ff16151560a0830152918201805491929160c08401919062000af09062001b07565b80601f016020809104026020016040519081016040528092919081815260200182805462000b1e9062001b07565b801562000b6f5780601f1062000b435761010080835404028352916020019162000b6f565b820191906000526020600020905b81548152906001019060200180831162000b5157829003601f168201915b5050509183525050600791909101546001600160a01b031660209091015260a08101519091501562000bb457604051633c42e29760e11b815260040160405180910390fd5b80516001600160a01b0316330362000bdf57604051634ca8886760e01b815260040160405180910390fd5b806060015134101562000c0557604051632747691360e11b815260040160405180910390fd5b600030826000015133348786602001518760400151886080015160405162000c2d906200168a565b6001600160a01b039889168152968816602088015294871660408701526060860193909352608085019190915260a084015290921660c082015260e081019190915261010001604051809103906000f08015801562000c90573d6000803e3d6000fd5b506040519091506001600160a01b038216903480156108fc02916000818181858888f1935050505015801562000cca573d6000803e3d6000fd5b506001600160a01b0381811660e0840152600160a0840181905233600081815260036020908152604080832080548087018255908452828420018b90558a8352600690915290819020600281015493015490516323b872dd60e01b8152306004820152602481019290925260448201529116906323b872dd90606401600060405180830381600087803b15801562000d6157600080fd5b505af115801562000d76573d6000803e3d6000fd5b505083516000888152600660209081526040918290206002015482516001600160a01b0391821681529182018b90528681169550339450909216917f2fd62a11bc93924eb56bb85adee86e709d7c95bc65a20a941c3d7e632878107d910160405180910390a4949350505050565b60008181526006602052604090205481906001600160a01b0316331480159062000e2857506000818152600660205260409020600701546001600160a01b03163314155b1562000e4757604051634ca8886760e01b815260040160405180910390fd5b60008281526006602052604090206005015460ff161562000e7b57604051633c42e29760e11b815260040160405180910390fd5b600082815260066020526040902054336001600160a01b039091160362000f1f5760008281526006602052604090819020600281015460019091015491516323b872dd60e01b815230600482015233602482015260448101929092526001600160a01b0316906323b872dd90606401600060405180830381600087803b15801562000f0557600080fd5b505af115801562000f1a573d6000803e3d6000fd5b505050505b6000828152600660208190526040822080546001600160a01b03199081168255600182018490556002820180549091169055600381018390556004810183905560058101805460ff19169055919062000f7b9083018262001698565b5060070180546001600160a01b03191690556000805b33600090815260026020526040902054811015620010b65733600090815260026020526040902080548591908390811062000fd05762000fd062001a3e565b906000526020600020015403620010145733600090815260026020526040902080548290811062001005576200100562001a3e565b60009182526020822001559050805b81811115620010a15733600090815260026020526040902080548290811062001041576200104162001a3e565b60009182526020808320909101543383526002909152604090912062001068848462001a6a565b6200107590600162001a6a565b62001081908562001a84565b8154811062001094576200109462001a3e565b6000918252602090912001555b80620010ad8162001a9f565b91505062000f91565b50336000908152600260205260409020805480620010d857620010d862001abb565b600082815260208082208301600019908101839055909201909255848252600481526040808320805460ff199081169091556006835281842060028101546001600160a01b0316855260058452828520600191909101548552909252808320805490921690915551849133917f8a7922f72dc2a50a632acdde12b7d222aefa2fdb7f3ca1364b419734569d0e809190a3505050565b604080516101008101825260008082526020820181905291810182905260608082018390526080820183905260a0820183905260c082015260e081019190915260008281526006602081815260409283902083516101008101855281546001600160a01b0390811682526001830154938201939093526002820154909216938201939093526003830154606082015260048301546080820152600583015460ff16151560a0820152908201805491929160c0840191906200122e9062001b07565b80601f01602080910402602001604051908101604052809291908181526020018280546200125c9062001b07565b8015620012ad5780601f106200128157610100808354040283529160200191620012ad565b820191906000526020600020905b8154815290600101906020018083116200128f57829003601f168201915b5050509183525050600791909101546001600160a01b031660209091015292915050565b600660208190526000918252604090912080546001820154600283015460038401546004850154600586015496860180546001600160a01b0396871698959794909616959294919360ff909216926200132a9062001b07565b80601f0160208091040260200160405190810160405280929190818152602001828054620013589062001b07565b8015620013a95780601f106200137d57610100808354040283529160200191620013a9565b820191906000526020600020905b8154815290600101906020018083116200138b57829003601f168201915b505050600790930154919250506001600160a01b031688565b6001600160a01b0381166000908152600260209081526040918290208054835181840281018401909452808452606093928301828280156200142457602002820191906000526020600020905b8154815260200190600101908083116200140f575b50505050509050919050565b60008381526004602052604090205460ff161515600114620014825760405162461bcd60e51b815260206004820152600a6024820152696e6f742061637469766560b01b604482015260640162000a67565b6000838152600660205260409020546001600160a01b03163314620014d65760405162461bcd60e51b81526020600482015260096024820152683737ba1037bbb732b960b91b604482015260640162000a67565b60008381526006602052604090206005015460ff16156200150a57604051633c42e29760e11b815260040160405180910390fd5b60008381526006602090815260409182902060038101859055600401839055815184815290810183905284917f160541cc98f6562eab34c424d3dc2f1b7a6119b486bc82492a0b426125c8f00791016200062b565b62001569620015de565b6001600160a01b038116620015d05760405162461bcd60e51b815260206004820152602660248201527f4f776e61626c653a206e6577206f776e657220697320746865207a65726f206160448201526564647265737360d01b606482015260840162000a67565b620015db816200163a565b50565b6000546001600160a01b0316331462000a185760405162461bcd60e51b815260206004820181905260248201527f4f776e61626c653a2063616c6c6572206973206e6f7420746865206f776e6572604482015260640162000a67565b600080546001600160a01b038381166001600160a01b0319831681178455604051919092169283917f8be0079c531659141344cd1fd0a4f28419497f9722a3daafe3b4186f6b6457e09190a35050565b610d608062001d6e83390190565b508054620016a69062001b07565b6000825580601f10620016b7575050565b601f016020900490600052602060002090810190620015db91905b80821115620016e85760008155600101620016d2565b5090565b6001600160a01b0381168114620015db57600080fd5b600080604083850312156200171657600080fd5b82356200172381620016ec565b946020939093013593505050565b600080604083850312156200174557600080fd5b8235915060208301356200175981620016ec565b809150509250929050565b6000602082840312156200177757600080fd5b5035919050565b60008060008060008060a087890312156200179857600080fd5b8635620017a581620016ec565b9550602087013594506040870135935060608701359250608087013567ffffffffffffffff80821115620017d857600080fd5b818901915089601f830112620017ed57600080fd5b813581811115620017fd57600080fd5b8a60208285010111156200181057600080fd5b6020830194508093505050509295509295509295565b600080604083850312156200183a57600080fd5b50508035926020909101359150565b60005b83811015620018665781810151838201526020016200184c565b8381111562001876576000848401525b50505050565b600081518084526200189681602086016020860162001849565b601f01601f19169290920160200192915050565b60208152600060018060a01b03808451166020840152602084015160408401528060408501511660608401525060608301516080830152608083015160a083015260a0830151620018ff60c084018215159052565b5060c08301516101008060e08501526200191e6101208501836200187c565b915060e08501516200193a828601826001600160a01b03169052565b5090949350505050565b600061010060018060a01b03808c1684528a6020850152808a16604085015288606085015287608085015286151560a08501528160c08501526200198b828501876200187c565b925080851660e085015250509998505050505050505050565b600060208284031215620019b757600080fd5b8135620019c481620016ec565b9392505050565b6020808252825182820181905260009190848201906040850190845b8181101562001a0557835183529284019291840191600101620019e7565b50909695505050505050565b60008060006060848603121562001a2757600080fd5b505081359360208301359350604090920135919050565b634e487b7160e01b600052603260045260246000fd5b634e487b7160e01b600052601160045260246000fd5b60008282101562001a7f5762001a7f62001a54565b500390565b6000821982111562001a9a5762001a9a62001a54565b500190565b60006001820162001ab45762001ab462001a54565b5060010190565b634e487b7160e01b600052603160045260246000fd5b60006020828403121562001ae457600080fd5b8151620019c481620016ec565b634e487b7160e01b600052604160045260246000fd5b600181811c9082168062001b1c57607f821691505b60208210810362001b3d57634e487b7160e01b600052602260045260246000fd5b50919050565b601f82111562001b9157600081815260208120601f850160051c8101602086101562001b6c5750805b601f850160051c820191505b8181101562001b8d5782815560010162001b78565b5050505b505050565b815167ffffffffffffffff81111562001bb35762001bb362001af1565b62001bcb8162001bc4845462001b07565b8462001b43565b602080601f83116001811462001c03576000841562001bea5750858301515b600019600386901b1c1916600185901b17855562001b8d565b600085815260208120601f198616915b8281101562001c345788860151825594840194600190910190840162001c13565b508582101562001c535787850151600019600388901b60f8161c191681555b5050505050600190811b01905550565b8183823760009101908152919050565b60008162001c855762001c8562001a54565b506000190190565b60006020828403121562001ca057600080fd5b815167ffffffffffffffff8082111562001cb957600080fd5b818401915084601f83011262001cce57600080fd5b81518181111562001ce35762001ce362001af1565b604051601f8201601f19908116603f0116810190838211818310171562001d0e5762001d0e62001af1565b8160405282815287602084870101111562001d2857600080fd5b62001d3b83602083016020880162001849565b979650505050505050565b60608152600062001d5b60608301866200187c565b6020830194909452506040015291905056fe608060405234801561001057600080fd5b50604051610d60380380610d6083398101604081905261002f916100b4565b600080546001600160a01b03199081166001600160a01b039a8b1617909155600180548216988a1698909817909755600280548816968916969096179095556003939093556004919091556005556006805490931693169290921790556008554260095561012f565b80516001600160a01b03811681146100af57600080fd5b919050565b600080600080600080600080610100898b0312156100d157600080fd5b6100da89610098565b97506100e860208a01610098565b96506100f660408a01610098565b9550606089015194506080890151935060a0890151925061011960c08a01610098565b915060e089015190509295985092959890939650565b610c228061013e6000396000f3fe6080604052600436106100835760003560e01c806370bf2bae1161005657806370bf2bae146101865780639361c1ff146101a457806398bb25eb146101b9578063b78154f514610214578063c6d62d901461023457005b80630eba16ad1461008557806331f2948d146100ad57806359c153be146100e557806364c697fc146100fa575b005b34801561009157600080fd5b5061009a61023c565b6040519081526020015b60405180910390f35b3480156100b957600080fd5b506000546100cd906001600160a01b031681565b6040516001600160a01b0390911681526020016100a4565b3480156100f157600080fd5b506100836102c0565b34801561010657600080fd5b5061010f6104a1565b6040516100a4919081516001600160a01b03908116825260208084015182169083015260408084015190830152606080840151908301526080808401519083015260a0808401519091169082015260c0808301519082015260e0808301519082015261010091820151918101919091526101200190565b34801561019257600080fd5b506000546001600160a01b03166100cd565b3480156101b057600080fd5b506100836105c6565b3480156101c557600080fd5b506101ce610712565b6040516100a49190600060a08201905082518252602083015160208301526040830151604083015260608301511515606083015260808301511515608083015292915050565b34801561022057600080fd5b5061008361022f366004610b35565b6107de565b6100836108ea565b6001546000906001600160a01b031633148061026257506002546001600160a01b031633145b8061027757506000546001600160a01b031633145b61029c5760405162461bcd60e51b815260040161029390610b61565b60405180910390fd5b600854600954600091906102b09042610b9e565b6102ba9190610bb5565b91505090565b6001546001600160a01b031633146102ea5760405162461bcd60e51b815260040161029390610b61565b60045442906102fa906018610bb5565b61030590603c610bb5565b61031090603c610bb5565b60095461031d9190610bd4565b101561037f5760405162461bcd60e51b815260206004820152602b60248201527f43616e6e6f742074616b6520636f6c6c61746572616c206265666f726520616760448201526a1c99595b595b9d08195b9960aa1b6064820152608401610293565b600354604051339180156108fc02916000818181858888f193505050501580156103ad573d6000803e3d6000fd5b50600080546040516001600160a01b03909116914780156108fc02929091818181858888f193505050501580156103e8573d6000803e3d6000fd5b50600054600554604051632587c25160e21b81526001600160a01b039092169163961f09449161041e9160040190815260200190565b600060405180830381600087803b15801561043857600080fd5b505af115801561044c573d6000803e3d6000fd5b50506001546003546040519081526001600160a01b0390911692503091507fef9786f020a42cd318223f933c92260dece31de5cd587b0d7c230fd2a056a1119060200160405180910390a361049f610b27565b565b61050b60405180610120016040528060006001600160a01b0316815260200160006001600160a01b0316815260200160008152602001600081526020016000815260200160006001600160a01b031681526020016000815260200160008152602001600081525090565b6001546001600160a01b031633148061052e57506002546001600160a01b031633145b8061054357506000546001600160a01b031633145b61055f5760405162461bcd60e51b815260040161029390610b61565b5060408051610120810182526001546001600160a01b03908116825260025481166020830152600354928201929092526004546060820152600554608082015260065490911660a082015260075460c082015260085460e082015260095461010082015290565b6001546001600160a01b03163314806105e957506002546001600160a01b031633145b806105fe57506000546001600160a01b031633145b61061a5760405162461bcd60e51b815260040161029390610b61565b6001546001600160a01b03163314610633576000610636565b60015b600d805460ff19169115159190911790556002546001600160a01b03163314610660576000610663565b60015b600d80549115156101000261ff00198316811790915560ff90811691161780156106945750600d54610100900460ff165b156106c557600a8054600355600b8054600455600c80546008556000928390559082905555600d805461ffff191690555b6003546004546008546040805193845260208401929092528282015251339130917fb68df63d8a9a08aff17eca0804f29b1d4a74b988d68032fb5403c27c0a00983a9181900360600190a3565b6107486040518060a001604052806000815260200160008152602001600081526020016000151581526020016000151581525090565b6001546001600160a01b031633148061076b57506002546001600160a01b031633145b8061078057506000546001600160a01b031633145b61079c5760405162461bcd60e51b815260040161029390610b61565b506040805160a081018252600a548152600b546020820152600c5491810191909152600d5460ff80821615156060840152610100909104161515608082015290565b6001546001600160a01b031633148061080157506002546001600160a01b031633145b8061081657506000546001600160a01b031633145b6108325760405162461bcd60e51b815260040161029390610b61565b600a839055600b829055600c8190556001546001600160a01b0316331461085a57600061085d565b60015b600d805460ff19169115159190911790556002546001600160a01b0316331461088757600061088a565b60015b600d80549115156101000261ff0019909216919091179055604080518481526020810184905290810182905230907fe4cce6927b8bf0d716b3d9dfeea287783f4548420991972e21af329645ce50fa9060600160405180910390a2505050565b6002546001600160a01b031633146109145760405162461bcd60e51b815260040161029390610b61565b600854600954600091906109289042610b9e565b6109329190610bb5565b9050804710156109775760405162461bcd60e51b815260206004820152601060248201526f4e6f7420656e6f7567682066756e647360801b6044820152606401610293565b6006546000546005546040516323b872dd60e01b81523360048201526001600160a01b03928316602482015260448101919091529116906323b872dd90606401600060405180830381600087803b1580156109d157600080fd5b505af11580156109e5573d6000803e3d6000fd5b50506001546040516001600160a01b03909116925083156108fc02915083906000818181858888f19350505050158015610a23573d6000803e3d6000fd5b506002546040516001600160a01b03909116904780156108fc02916000818181858888f19350505050158015610a5d573d6000803e3d6000fd5b50600054600554604051632da0281160e11b81526001600160a01b0390921691635b40502291610a939160040190815260200190565b600060405180830381600087803b158015610aad57600080fd5b505af1158015610ac1573d6000803e3d6000fd5b5050600554600654600154600254604080516001600160a01b03938416815291831660208301529395509116925030917f026d9064198ba188fd618356138706e98d18eb8d2200b7086529c62206d51d8f910160405180910390a4610b24610b27565b50565b6000546001600160a01b0316ff5b600080600060608486031215610b4a57600080fd5b505081359360208301359350604090920135919050565b6020808252600d908201526c1858d8d95cdcc819195b9a5959609a1b604082015260600190565b634e487b7160e01b600052601160045260246000fd5b600082821015610bb057610bb0610b88565b500390565b6000816000190483118215151615610bcf57610bcf610b88565b500290565b60008219821115610be757610be7610b88565b50019056fea2646970667358221220c6e470646449ec299a01e70e012f0c9e93fcd9d82449225987b88bed0155ae2a64736f6c634300080f0033a26469706673582212209462b7b317990d95359347419d09a01d7fcdf04930782c22a8090807d530229d64736f6c634300080f0033",
    "linkReferences": {}
  },
  "methodIdentifiers": {
    "activeItem(uint256)": "58dd8603",
    "borrowersNfts(address,uint256)": "445297e3",
    "getDataItem(uint256)": "a62af6a2",
    "getItemListByOwner(address)": "c2dd9a00",
    "items(uint256)": "bfb231d2",
    "listNFT(address,uint256,uint256,uint256,string)": "6d076255",
    "modifyListedNFT(uint256,uint256,uint256)": "c6636344",
    "nextItemId()": "6a868974",
    "nftListed(address,uint256)": "b0787e32",
    "nftsListedByOwner(address,uint256)": "107037e8",
    "owner()": "8da5cb5b",
    "renounceOwnership()": "715018a6",
    "rent(uint256,uint256)": "783a112b",
    "returnNFT(uint256,address)": "2fd3db34",
    "transferOwnership(address)": "f2fde38b",
    "unlistNFT(uint256)": "961f0944"
  },
  "id": 1
}