{
  "abi": [
    {
      "inputs": [],
      "name": "AccessDenied",
      "type": "error"
    },
    {
      "inputs": [],
      "name": "AlreadyRented",
      "type": "error"
    },
    {
      "inputs": [],
      "name": "InvalidId",
      "type": "error"
    },
    {
      "inputs": [],
      "name": "LowAmount",
      "type": "error"
    },
    {
      "inputs": [],
      "name": "NotAcceptedProposal",
      "type": "error"
    },
    {
      "inputs": [],
      "name": "NotOwner",
      "type": "error"
    },
    {
      "anonymous": false,
      "inputs": [
        {
          "indexed": true,
          "internalType": "uint256",
          "name": "itemId",
          "type": "uint256"
        },
        {
          "indexed": false,
          "internalType": "uint256",
          "name": "collateral",
          "type": "uint256"
        },
        {
          "indexed": false,
          "internalType": "uint256",
          "name": "price",
          "type": "uint256"
        }
      ],
      "name": "ListedNFTDataModified",
      "type": "event"
    },
    {
      "anonymous": false,
      "inputs": [
        {
          "indexed": true,
          "internalType": "address",
          "name": "owner",
          "type": "address"
        },
        {
          "indexed": true,
          "internalType": "uint256",
          "name": "itemId",
          "type": "uint256"
        },
        {
          "indexed": true,
          "internalType": "string",
          "name": "benefits",
          "type": "string"
        },
        {
          "indexed": false,
          "internalType": "uint256",
          "name": "collateral",
          "type": "uint256"
        },
        {
          "indexed": false,
          "internalType": "uint256",
          "name": "price",
          "type": "uint256"
        }
      ],
      "name": "NFTListed",
      "type": "event"
    },
    {
      "anonymous": false,
      "inputs": [
        {
          "indexed": true,
          "internalType": "address",
          "name": "owner",
          "type": "address"
        },
        {
          "indexed": true,
          "internalType": "address",
          "name": "tenant",
          "type": "address"
        },
        {
          "indexed": true,
          "internalType": "address",
          "name": "agreement",
          "type": "address"
        },
        {
          "indexed": false,
          "internalType": "address",
          "name": "itemAddress",
          "type": "address"
        },
        {
          "indexed": false,
          "internalType": "uint256",
          "name": "itemId",
          "type": "uint256"
        }
      ],
      "name": "NFTRented",
      "type": "event"
    },
    {
      "anonymous": false,
      "inputs": [
        {
          "indexed": true,
          "internalType": "uint256",
          "name": "itemId",
          "type": "uint256"
        },
        {
          "indexed": false,
          "internalType": "uint256",
          "name": "timestamp",
          "type": "uint256"
        }
      ],
      "name": "NFTReturned",
      "type": "event"
    },
    {
      "anonymous": false,
      "inputs": [
        {
          "indexed": true,
          "internalType": "address",
          "name": "owner",
          "type": "address"
        },
        {
          "indexed": true,
          "internalType": "uint256",
          "name": "itemId",
          "type": "uint256"
        }
      ],
      "name": "NFTUnlisted",
      "type": "event"
    },
    {
      "anonymous": false,
      "inputs": [
        {
          "indexed": true,
          "internalType": "address",
          "name": "previousOwner",
          "type": "address"
        },
        {
          "indexed": true,
          "internalType": "address",
          "name": "newOwner",
          "type": "address"
        }
      ],
      "name": "OwnershipTransferred",
      "type": "event"
    },
    {
      "inputs": [
        {
          "internalType": "uint256",
          "name": "",
          "type": "uint256"
        }
      ],
      "name": "activeItem",
      "outputs": [
        {
          "internalType": "bool",
          "name": "",
          "type": "bool"
        }
      ],
      "stateMutability": "view",
      "type": "function"
    },
    {
      "inputs": [
        {
          "internalType": "address",
          "name": "",
          "type": "address"
        },
        {
          "internalType": "uint256",
          "name": "",
          "type": "uint256"
        }
      ],
      "name": "borrowersNfts",
      "outputs": [
        {
          "internalType": "uint256",
          "name": "",
          "type": "uint256"
        }
      ],
      "stateMutability": "view",
      "type": "function"
    },
    {
      "inputs": [
        {
          "internalType": "uint256",
          "name": "_item",
          "type": "uint256"
        }
      ],
      "name": "getDataItem",
      "outputs": [
        {
          "components": [
            {
              "internalType": "address",
              "name": "owner",
              "type": "address"
            },
            {
              "internalType": "uint256",
              "name": "tokenId",
              "type": "uint256"
            },
            {
              "internalType": "address",
              "name": "nftAddress",
              "type": "address"
            },
            {
              "internalType": "uint256",
              "name": "collateral",
              "type": "uint256"
            },
            {
              "internalType": "uint256",
              "name": "pricePerDay",
              "type": "uint256"
            },
            {
              "internalType": "bool",
              "name": "rented",
              "type": "bool"
            },
            {
              "internalType": "string",
              "name": "benefits",
              "type": "string"
            },
            {
              "internalType": "address",
              "name": "agreementAddress",
              "type": "address"
            }
          ],
          "internalType": "struct Elastic.NFTData",
          "name": "",
          "type": "tuple"
        }
      ],
      "stateMutability": "view",
      "type": "function"
    },
    {
      "inputs": [
        {
          "internalType": "address",
          "name": "_owner",
          "type": "address"
        }
      ],
      "name": "getItemListByOwner",
      "outputs": [
        {
          "internalType": "uint256[]",
          "name": "",
          "type": "uint256[]"
        }
      ],
      "stateMutability": "view",
      "type": "function"
    },
    {
      "inputs": [
        {
          "internalType": "uint256",
          "name": "",
          "type": "uint256"
        }
      ],
      "name": "items",
      "outputs": [
        {
          "internalType": "address",
          "name": "owner",
          "type": "address"
        },
        {
          "internalType": "uint256",
          "name": "tokenId",
          "type": "uint256"
        },
        {
          "internalType": "address",
          "name": "nftAddress",
          "type": "address"
        },
        {
          "internalType": "uint256",
          "name": "collateral",
          "type": "uint256"
        },
        {
          "internalType": "uint256",
          "name": "pricePerDay",
          "type": "uint256"
        },
        {
          "internalType": "bool",
          "name": "rented",
          "type": "bool"
        },
        {
          "internalType": "string",
          "name": "benefits",
          "type": "string"
        },
        {
          "internalType": "address",
          "name": "agreementAddress",
          "type": "address"
        }
      ],
      "stateMutability": "view",
      "type": "function"
    },
    {
      "inputs": [
        {
          "internalType": "address",
          "name": "_nft",
          "type": "address"
        },
        {
          "internalType": "uint256",
          "name": "_tokenId",
          "type": "uint256"
        },
        {
          "internalType": "uint256",
          "name": "_price",
          "type": "uint256"
        },
        {
          "internalType": "uint256",
          "name": "_collateral",
          "type": "uint256"
        },
        {
          "internalType": "string",
          "name": "_benefits",
          "type": "string"
        }
      ],
      "name": "listNFT",
      "outputs": [
        {
          "internalType": "uint256",
          "name": "",
          "type": "uint256"
        }
      ],
      "stateMutability": "nonpayable",
      "type": "function"
    },
    {
      "inputs": [
        {
          "internalType": "uint256",
          "name": "_itemId",
          "type": "uint256"
        },
        {
          "internalType": "uint256",
          "name": "_collateral",
          "type": "uint256"
        },
        {
          "internalType": "uint256",
          "name": "_price",
          "type": "uint256"
        }
      ],
      "name": "modifyListedNFT",
      "outputs": [],
      "stateMutability": "nonpayable",
      "type": "function"
    },
    {
      "inputs": [],
      "name": "nextItemId",
      "outputs": [
        {
          "internalType": "uint256",
          "name": "",
          "type": "uint256"
        }
      ],
      "stateMutability": "view",
      "type": "function"
    },
    {
      "inputs": [
        {
          "internalType": "address",
          "name": "",
          "type": "address"
        },
        {
          "internalType": "uint256",
          "name": "",
          "type": "uint256"
        }
      ],
      "name": "nftListed",
      "outputs": [
        {
          "internalType": "bool",
          "name": "",
          "type": "bool"
        }
      ],
      "stateMutability": "view",
      "type": "function"
    },
    {
      "inputs": [
        {
          "internalType": "address",
          "name": "",
          "type": "address"
        },
        {
          "internalType": "uint256",
          "name": "",
          "type": "uint256"
        }
      ],
      "name": "nftsListedByOwner",
      "outputs": [
        {
          "internalType": "uint256",
          "name": "",
          "type": "uint256"
        }
      ],
      "stateMutability": "view",
      "type": "function"
    },
    {
      "inputs": [],
      "name": "owner",
      "outputs": [
        {
          "internalType": "address",
          "name": "",
          "type": "address"
        }
      ],
      "stateMutability": "view",
      "type": "function"
    },
    {
      "inputs": [],
      "name": "renounceOwnership",
      "outputs": [],
      "stateMutability": "nonpayable",
      "type": "function"
    },
    {
      "inputs": [
        {
          "internalType": "uint256",
          "name": "_itemId",
          "type": "uint256"
        },
        {
          "internalType": "uint256",
          "name": "_daysToRent",
          "type": "uint256"
        }
      ],
      "name": "rent",
      "outputs": [],
      "stateMutability": "payable",
      "type": "function"
    },
    {
      "inputs": [
        {
          "internalType": "uint256",
          "name": "_itemId",
          "type": "uint256"
        },
        {
          "internalType": "address",
          "name": "_borrower",
          "type": "address"
        }
      ],
      "name": "returnNFT",
      "outputs": [],
      "stateMutability": "nonpayable",
      "type": "function"
    },
    {
      "inputs": [
        {
          "internalType": "address",
          "name": "newOwner",
          "type": "address"
        }
      ],
      "name": "transferOwnership",
      "outputs": [],
      "stateMutability": "nonpayable",
      "type": "function"
    },
    {
      "inputs": [
        {
          "internalType": "uint256",
          "name": "_itemId",
          "type": "uint256"
        }
      ],
      "name": "unlistNFT",
      "outputs": [],
      "stateMutability": "nonpayable",
      "type": "function"
    }
  ],
  "bytecode": {
    "object": "0x60806040526001805534801561001457600080fd5b5061001e33610023565b610073565b600080546001600160a01b038381166001600160a01b0319831681178455604051919092169283917f8be0079c531659141344cd1fd0a4f28419497f9722a3daafe3b4186f6b6457e09190a35050565b612964806100826000396000f3fe608060405260043610620001075760003560e01c80638da5cb5b1162000095578063bfb231d21162000060578063bfb231d21462000303578063c2dd9a00146200033e578063c66363441462000372578063f2fde38b146200039757600080fd5b80638da5cb5b1462000241578063961f0944146200026b578063a62af6a21462000290578063b0787e3214620002c457600080fd5b80636a86897411620000d65780636a86897414620001d55780636d07625514620001ed578063715018a61462000212578063783a112b146200022a57600080fd5b8063107037e8146200010c5780632fd3db341462000144578063445297e3146200016b57806358dd86031462000190575b600080fd5b3480156200011957600080fd5b50620001316200012b3660046200167d565b620003bc565b6040519081526020015b60405180910390f35b3480156200015157600080fd5b506200016962000163366004620016ac565b620003ee565b005b3480156200017857600080fd5b50620001316200018a3660046200167d565b62000629565b3480156200019d57600080fd5b50620001c4620001af366004620016df565b60046020526000908152604090205460ff1681565b60405190151581526020016200013b565b348015620001e257600080fd5b506200013160015481565b348015620001fa57600080fd5b50620001316200020c366004620016f9565b62000646565b3480156200021f57600080fd5b50620001696200097f565b620001696200023b366004620017a1565b62000997565b3480156200024e57600080fd5b506000546040516001600160a01b0390911681526020016200013b565b3480156200027857600080fd5b50620001696200028a366004620016df565b62000d5f565b3480156200029d57600080fd5b50620002b5620002af366004620016df565b620010e8565b6040516200013b919062001814565b348015620002d157600080fd5b50620001c4620002e33660046200167d565b600560209081526000928352604080842090915290825290205460ff1681565b3480156200031057600080fd5b506200032862000322366004620016df565b6200124c565b6040516200013b989796959493929190620018ae565b3480156200034b57600080fd5b50620003636200035d3660046200190e565b6200133d565b6040516200013b919062001935565b3480156200037f57600080fd5b5062000169620003913660046200197b565b620013ab565b348015620003a457600080fd5b5062000169620003b63660046200190e565b620014da565b60026020528160005260406000208181548110620003d957600080fd5b90600052602060002001600091509150505481565b6000828152600660205260409020600701546001600160a01b031633146200042957604051634ca8886760e01b815260040160405180910390fd5b600082815260066020526040812060058101805460ff1916905560070180546001600160a01b0319169055805b6001600160a01b038316600090815260036020526040902054811015620005a8576001600160a01b0383166000908152600360205260409020805485919083908110620004a757620004a7620019a8565b906000526020600020015403620004f4576001600160a01b0383166000908152600360205260409020805482908110620004e557620004e5620019a8565b60009182526020822001559050805b8181111562000593576001600160a01b03831660009081526003602052604090208054829081106200052a576200052a620019a8565b60009182526020808320909101546001600160a01b0386168352600390915260409091206200055a8484620019d4565b62000567906001620019d4565b620005739085620019ee565b81548110620005865762000586620019a8565b6000918252602090912001555b806200059f8162001a09565b91505062000456565b506001600160a01b0382166000908152600360205260409020805480620005d357620005d362001a25565b60019003818190600052602060002001600090559055827f2f7962629c7acb5fdb09b112c9ebf00af8ffd9f852864c333918873be6a56800426040516200061c91815260200190565b60405180910390a2505050565b60036020528160005260406000208181548110620003d957600080fd5b6040516331a9108f60e11b81526004810186905260009033906001600160a01b03891690636352211e90602401602060405180830381865afa15801562000691573d6000803e3d6000fd5b505050506040513d601f19601f82011682018060405250810190620006b7919062001a3b565b6001600160a01b031614620006df576040516330cd747160e01b815260040160405180910390fd5b6040516323b872dd60e01b8152336004820152306024820152604481018790526001600160a01b038816906323b872dd90606401600060405180830381600087803b1580156200072e57600080fd5b505af115801562000743573d6000803e3d6000fd5b505050506000604051806101000160405280336001600160a01b03168152602001888152602001896001600160a01b0316815260200186815260200187815260200160001515815260200185858080601f016020809104026020016040519081016040528093929190818152602001838380828437600092018290525093855250505060209182018190523381526002808352604080832060018054825480830184559286528686209092019190915580548452600680865293829020865181546001600160a01b03199081166001600160a01b039283161783559688015192820192909255918601519282018054909516921691909117909255606083015160038301556080830151600483015560a083015160058301805460ff191691151591909117905560c083015192935083929082019062000884908262001b00565b5060e09190910151600790910180546001600160a01b0319166001600160a01b03928316179055600180546000908152600460209081526040808320805460ff199081168617909155948d168352600582528083208c845290915290819020805490931682179092558054810190555162000903908590859062001bcd565b604051908190039020600180549060006200091e8362001bdd565b9091555060408051888152602081018a905233917f3e6352c117115e99eb7798b0950613504b81c8add027942fee2a521b51165418910160405180910390a4600180549060006200096f8362001bdd565b9091555098975050505050505050565b6200098962001559565b620009956000620015b5565b565b60008281526004602052604090205460ff161515600114620009ed5760405162461bcd60e51b815260206004820152600a6024820152696e6f742061637469766560b01b60448201526064015b60405180910390fd5b600082815260066020818152604080842081516101008101835281546001600160a01b0390811682526001830154948201949094526002820154909316918301919091526003810154606083015260048101546080830152600581015460ff16151560a0830152918201805491929160c08401919062000a6d9062001a71565b80601f016020809104026020016040519081016040528092919081815260200182805462000a9b9062001a71565b801562000aec5780601f1062000ac05761010080835404028352916020019162000aec565b820191906000526020600020905b81548152906001019060200180831162000ace57829003601f168201915b5050509183525050600791909101546001600160a01b031660209091015260a08101519091501562000b3157604051633c42e29760e11b815260040160405180910390fd5b80516001600160a01b0316330362000b5c57604051634ca8886760e01b815260040160405180910390fd5b806060015134101562000b8257604051632747691360e11b815260040160405180910390fd5b600030826000015133348686602001518760400151886080015160405162000baa9062001605565b6001600160a01b039889168152968816602088015294871660408701526060860193909352608085019190915260a084015290921660c082015260e081019190915261010001604051809103906000f08015801562000c0d573d6000803e3d6000fd5b506040519091506001600160a01b038216903480156108fc02916000818181858888f1935050505015801562000c47573d6000803e3d6000fd5b506001600160a01b0381811660e0840152600160a0840181905233600081815260036020908152604080832080548087018255908452828420018a9055898352600690915290819020600281015493015490516323b872dd60e01b8152306004820152602481019290925260448201529116906323b872dd90606401600060405180830381600087803b15801562000cde57600080fd5b505af115801562000cf3573d6000803e3d6000fd5b505083516000878152600660209081526040918290206002015482516001600160a01b0391821681529182018a90528681169550339450909216917f2fd62a11bc93924eb56bb85adee86e709d7c95bc65a20a941c3d7e632878107d910160405180910390a450505050565b60008181526006602052604090205481906001600160a01b0316331480159062000da357506000818152600660205260409020600701546001600160a01b03163314155b1562000dc257604051634ca8886760e01b815260040160405180910390fd5b60008281526006602052604090206005015460ff161562000df657604051633c42e29760e11b815260040160405180910390fd5b600082815260066020526040902054336001600160a01b039091160362000e9a5760008281526006602052604090819020600281015460019091015491516323b872dd60e01b815230600482015233602482015260448101929092526001600160a01b0316906323b872dd90606401600060405180830381600087803b15801562000e8057600080fd5b505af115801562000e95573d6000803e3d6000fd5b505050505b6000828152600660208190526040822080546001600160a01b03199081168255600182018490556002820180549091169055600381018390556004810183905560058101805460ff19169055919062000ef69083018262001613565b5060070180546001600160a01b03191690556000805b33600090815260026020526040902054811015620010315733600090815260026020526040902080548591908390811062000f4b5762000f4b620019a8565b90600052602060002001540362000f8f5733600090815260026020526040902080548290811062000f805762000f80620019a8565b60009182526020822001559050805b818111156200101c5733600090815260026020526040902080548290811062000fbc5762000fbc620019a8565b60009182526020808320909101543383526002909152604090912062000fe38484620019d4565b62000ff0906001620019d4565b62000ffc9085620019ee565b815481106200100f576200100f620019a8565b6000918252602090912001555b80620010288162001a09565b91505062000f0c565b5033600090815260026020526040902080548062001053576200105362001a25565b600082815260208082208301600019908101839055909201909255848252600481526040808320805460ff199081169091556006835281842060028101546001600160a01b0316855260058452828520600191909101548552909252808320805490921690915551849133917f8a7922f72dc2a50a632acdde12b7d222aefa2fdb7f3ca1364b419734569d0e809190a3505050565b604080516101008101825260008082526020820181905291810182905260608082018390526080820183905260a0820183905260c082015260e081019190915260008281526006602081815260409283902083516101008101855281546001600160a01b0390811682526001830154938201939093526002820154909216938201939093526003830154606082015260048301546080820152600583015460ff16151560a0820152908201805491929160c084019190620011a99062001a71565b80601f0160208091040260200160405190810160405280929190818152602001828054620011d79062001a71565b8015620012285780601f10620011fc5761010080835404028352916020019162001228565b820191906000526020600020905b8154815290600101906020018083116200120a57829003601f168201915b5050509183525050600791909101546001600160a01b031660209091015292915050565b600660208190526000918252604090912080546001820154600283015460038401546004850154600586015496860180546001600160a01b0396871698959794909616959294919360ff90921692620012a59062001a71565b80601f0160208091040260200160405190810160405280929190818152602001828054620012d39062001a71565b8015620013245780601f10620012f85761010080835404028352916020019162001324565b820191906000526020600020905b8154815290600101906020018083116200130657829003601f168201915b505050600790930154919250506001600160a01b031688565b6001600160a01b0381166000908152600260209081526040918290208054835181840281018401909452808452606093928301828280156200139f57602002820191906000526020600020905b8154815260200190600101908083116200138a575b50505050509050919050565b60008381526004602052604090205460ff161515600114620013fd5760405162461bcd60e51b815260206004820152600a6024820152696e6f742061637469766560b01b6044820152606401620009e4565b6000838152600660205260409020546001600160a01b03163314620014515760405162461bcd60e51b81526020600482015260096024820152683737ba1037bbb732b960b91b6044820152606401620009e4565b60008381526006602052604090206005015460ff16156200148557604051633c42e29760e11b815260040160405180910390fd5b60008381526006602090815260409182902060038101859055600401839055815184815290810183905284917f160541cc98f6562eab34c424d3dc2f1b7a6119b486bc82492a0b426125c8f00791016200061c565b620014e462001559565b6001600160a01b0381166200154b5760405162461bcd60e51b815260206004820152602660248201527f4f776e61626c653a206e6577206f776e657220697320746865207a65726f206160448201526564647265737360d01b6064820152608401620009e4565b6200155681620015b5565b50565b6000546001600160a01b03163314620009955760405162461bcd60e51b815260206004820181905260248201527f4f776e61626c653a2063616c6c6572206973206e6f7420746865206f776e65726044820152606401620009e4565b600080546001600160a01b038381166001600160a01b0319831681178455604051919092169283917f8be0079c531659141344cd1fd0a4f28419497f9722a3daafe3b4186f6b6457e09190a35050565b610d378062001bf883390190565b508054620016219062001a71565b6000825580601f1062001632575050565b601f0160209004906000526020600020908101906200155691905b808211156200166357600081556001016200164d565b5090565b6001600160a01b03811681146200155657600080fd5b600080604083850312156200169157600080fd5b82356200169e8162001667565b946020939093013593505050565b60008060408385031215620016c057600080fd5b823591506020830135620016d48162001667565b809150509250929050565b600060208284031215620016f257600080fd5b5035919050565b60008060008060008060a087890312156200171357600080fd5b8635620017208162001667565b9550602087013594506040870135935060608701359250608087013567ffffffffffffffff808211156200175357600080fd5b818901915089601f8301126200176857600080fd5b8135818111156200177857600080fd5b8a60208285010111156200178b57600080fd5b6020830194508093505050509295509295509295565b60008060408385031215620017b557600080fd5b50508035926020909101359150565b6000815180845260005b81811015620017ec57602081850181015186830182015201620017ce565b81811115620017ff576000602083870101525b50601f01601f19169290920160200192915050565b60208152600060018060a01b03808451166020840152602084015160408401528060408501511660608401525060608301516080830152608083015160a083015260a08301516200186960c084018215159052565b5060c08301516101008060e085015262001888610120850183620017c4565b915060e0850151620018a4828601826001600160a01b03169052565b5090949350505050565b600061010060018060a01b03808c1684528a6020850152808a16604085015288606085015287608085015286151560a08501528160c0850152620018f582850187620017c4565b925080851660e085015250509998505050505050505050565b6000602082840312156200192157600080fd5b81356200192e8162001667565b9392505050565b6020808252825182820181905260009190848201906040850190845b818110156200196f5783518352928401929184019160010162001951565b50909695505050505050565b6000806000606084860312156200199157600080fd5b505081359360208301359350604090920135919050565b634e487b7160e01b600052603260045260246000fd5b634e487b7160e01b600052601160045260246000fd5b600082821015620019e957620019e9620019be565b500390565b6000821982111562001a045762001a04620019be565b500190565b60006001820162001a1e5762001a1e620019be565b5060010190565b634e487b7160e01b600052603160045260246000fd5b60006020828403121562001a4e57600080fd5b81516200192e8162001667565b634e487b7160e01b600052604160045260246000fd5b600181811c9082168062001a8657607f821691505b60208210810362001aa757634e487b7160e01b600052602260045260246000fd5b50919050565b601f82111562001afb57600081815260208120601f850160051c8101602086101562001ad65750805b601f850160051c820191505b8181101562001af75782815560010162001ae2565b5050505b505050565b815167ffffffffffffffff81111562001b1d5762001b1d62001a5b565b62001b358162001b2e845462001a71565b8462001aad565b602080601f83116001811462001b6d576000841562001b545750858301515b600019600386901b1c1916600185901b17855562001af7565b600085815260208120601f198616915b8281101562001b9e5788860151825594840194600190910190840162001b7d565b508582101562001bbd5787850151600019600388901b60f8161c191681555b5050505050600190811b01905550565b8183823760009101908152919050565b60008162001bef5762001bef620019be565b50600019019056fe608060405234801561001057600080fd5b50604051610d37380380610d3783398101604081905261002f916100b4565b600080546001600160a01b03199081166001600160a01b039a8b1617909155600180548216988a1698909817909755600280548816968916969096179095556003939093556004919091556005556006805490931693169290921790556008554260095561012f565b80516001600160a01b03811681146100af57600080fd5b919050565b600080600080600080600080610100898b0312156100d157600080fd5b6100da89610098565b97506100e860208a01610098565b96506100f660408a01610098565b9550606089015194506080890151935060a0890151925061011960c08a01610098565b915060e089015190509295985092959890939650565b610bf98061013e6000396000f3fe6080604052600436106100785760003560e01c80639361c1ff1161004b5780639361c1ff1461017b57806398bb25eb14610190578063b78154f5146101eb578063c6d62d901461020b57005b80630eba16ad1461007a57806331f2948d146100a257806359c153be146100da57806364c697fc146100ef575b005b34801561008657600080fd5b5061008f610213565b6040519081526020015b60405180910390f35b3480156100ae57600080fd5b506000546100c2906001600160a01b031681565b6040516001600160a01b039091168152602001610099565b3480156100e657600080fd5b50610078610297565b3480156100fb57600080fd5b50610104610478565b604051610099919081516001600160a01b03908116825260208084015182169083015260408084015190830152606080840151908301526080808401519083015260a0808401519091169082015260c0808301519082015260e0808301519082015261010091820151918101919091526101200190565b34801561018757600080fd5b5061007861059d565b34801561019c57600080fd5b506101a56106e9565b6040516100999190600060a08201905082518252602083015160208301526040830151604083015260608301511515606083015260808301511515608083015292915050565b3480156101f757600080fd5b50610078610206366004610b0c565b6107b5565b6100786108c1565b6001546000906001600160a01b031633148061023957506002546001600160a01b031633145b8061024e57506000546001600160a01b031633145b6102735760405162461bcd60e51b815260040161026a90610b38565b60405180910390fd5b600854600954600091906102879042610b75565b6102919190610b8c565b91505090565b6001546001600160a01b031633146102c15760405162461bcd60e51b815260040161026a90610b38565b60045442906102d1906018610b8c565b6102dc90603c610b8c565b6102e790603c610b8c565b6009546102f49190610bab565b10156103565760405162461bcd60e51b815260206004820152602b60248201527f43616e6e6f742074616b6520636f6c6c61746572616c206265666f726520616760448201526a1c99595b595b9d08195b9960aa1b606482015260840161026a565b600354604051339180156108fc02916000818181858888f19350505050158015610384573d6000803e3d6000fd5b50600080546040516001600160a01b03909116914780156108fc02929091818181858888f193505050501580156103bf573d6000803e3d6000fd5b50600054600554604051632587c25160e21b81526001600160a01b039092169163961f0944916103f59160040190815260200190565b600060405180830381600087803b15801561040f57600080fd5b505af1158015610423573d6000803e3d6000fd5b50506001546003546040519081526001600160a01b0390911692503091507fef9786f020a42cd318223f933c92260dece31de5cd587b0d7c230fd2a056a1119060200160405180910390a3610476610afe565b565b6104e260405180610120016040528060006001600160a01b0316815260200160006001600160a01b0316815260200160008152602001600081526020016000815260200160006001600160a01b031681526020016000815260200160008152602001600081525090565b6001546001600160a01b031633148061050557506002546001600160a01b031633145b8061051a57506000546001600160a01b031633145b6105365760405162461bcd60e51b815260040161026a90610b38565b5060408051610120810182526001546001600160a01b03908116825260025481166020830152600354928201929092526004546060820152600554608082015260065490911660a082015260075460c082015260085460e082015260095461010082015290565b6001546001600160a01b03163314806105c057506002546001600160a01b031633145b806105d557506000546001600160a01b031633145b6105f15760405162461bcd60e51b815260040161026a90610b38565b6001546001600160a01b0316331461060a57600061060d565b60015b600d805460ff19169115159190911790556002546001600160a01b0316331461063757600061063a565b60015b600d80549115156101000261ff00198316811790915560ff908116911617801561066b5750600d54610100900460ff165b1561069c57600a8054600355600b8054600455600c80546008556000928390559082905555600d805461ffff191690555b6003546004546008546040805193845260208401929092528282015251339130917fb68df63d8a9a08aff17eca0804f29b1d4a74b988d68032fb5403c27c0a00983a9181900360600190a3565b61071f6040518060a001604052806000815260200160008152602001600081526020016000151581526020016000151581525090565b6001546001600160a01b031633148061074257506002546001600160a01b031633145b8061075757506000546001600160a01b031633145b6107735760405162461bcd60e51b815260040161026a90610b38565b506040805160a081018252600a548152600b546020820152600c5491810191909152600d5460ff80821615156060840152610100909104161515608082015290565b6001546001600160a01b03163314806107d857506002546001600160a01b031633145b806107ed57506000546001600160a01b031633145b6108095760405162461bcd60e51b815260040161026a90610b38565b600a839055600b829055600c8190556001546001600160a01b03163314610831576000610834565b60015b600d805460ff19169115159190911790556002546001600160a01b0316331461085e576000610861565b60015b600d80549115156101000261ff0019909216919091179055604080518481526020810184905290810182905230907fe4cce6927b8bf0d716b3d9dfeea287783f4548420991972e21af329645ce50fa9060600160405180910390a2505050565b6002546001600160a01b031633146108eb5760405162461bcd60e51b815260040161026a90610b38565b600854600954600091906108ff9042610b75565b6109099190610b8c565b90508047101561094e5760405162461bcd60e51b815260206004820152601060248201526f4e6f7420656e6f7567682066756e647360801b604482015260640161026a565b6006546000546005546040516323b872dd60e01b81523360048201526001600160a01b03928316602482015260448101919091529116906323b872dd90606401600060405180830381600087803b1580156109a857600080fd5b505af11580156109bc573d6000803e3d6000fd5b50506001546040516001600160a01b03909116925083156108fc02915083906000818181858888f193505050501580156109fa573d6000803e3d6000fd5b506002546040516001600160a01b03909116904780156108fc02916000818181858888f19350505050158015610a34573d6000803e3d6000fd5b50600054600554604051632da0281160e11b81526001600160a01b0390921691635b40502291610a6a9160040190815260200190565b600060405180830381600087803b158015610a8457600080fd5b505af1158015610a98573d6000803e3d6000fd5b5050600554600654600154600254604080516001600160a01b03938416815291831660208301529395509116925030917f026d9064198ba188fd618356138706e98d18eb8d2200b7086529c62206d51d8f910160405180910390a4610afb610afe565b50565b6000546001600160a01b0316ff5b600080600060608486031215610b2157600080fd5b505081359360208301359350604090920135919050565b6020808252600d908201526c1858d8d95cdcc819195b9a5959609a1b604082015260600190565b634e487b7160e01b600052601160045260246000fd5b600082821015610b8757610b87610b5f565b500390565b6000816000190483118215151615610ba657610ba6610b5f565b500290565b60008219821115610bbe57610bbe610b5f565b50019056fea2646970667358221220ea3c1f3a2d167396b2d0844d72f141df1a1d62b213fb5bae86f907225c27e3ac64736f6c634300080f0033a2646970667358221220e7099facf6658297855a50f5d4bfef5ba4ebb20ca50a06520625217788d1534364736f6c634300080f0033",
    "linkReferences": {}
  },
  "methodIdentifiers": {
    "activeItem(uint256)": "58dd8603",
    "borrowersNfts(address,uint256)": "445297e3",
    "getDataItem(uint256)": "a62af6a2",
    "getItemListByOwner(address)": "c2dd9a00",
    "items(uint256)": "bfb231d2",
    "listNFT(address,uint256,uint256,uint256,string)": "6d076255",
    "modifyListedNFT(uint256,uint256,uint256)": "c6636344",
    "nextItemId()": "6a868974",
    "nftListed(address,uint256)": "b0787e32",
    "nftsListedByOwner(address,uint256)": "107037e8",
    "owner()": "8da5cb5b",
    "renounceOwnership()": "715018a6",
    "rent(uint256,uint256)": "783a112b",
    "returnNFT(uint256,address)": "2fd3db34",
    "transferOwnership(address)": "f2fde38b",
    "unlistNFT(uint256)": "961f0944"
  },
  "id": 1
}